{
	"data": {
		"bytecode": {
			"linkReferences": {},
			"object": "608060405234801561001057600080fd5b50612d93806100206000396000f3fe608060405234801561001057600080fd5b50600436106100885760003560e01c80639f42af631161005b5780639f42af631461012a578063bb6228b01461015d578063d1577cac14610179578063f86a29c71461019557610088565b80631865c57d1461008d578063320ba8f7146100ab57806369c212f6146100db57806379ff2e6d1461010e575b600080fd5b6100956101b1565b6040516100a29190611a73565b60405180910390f35b6100c560048036038101906100c09190611bde565b610243565b6040516100d29190611caa565b60405180910390f35b6100f560048036038101906100f09190611d23565b610373565b6040516101059493929190612046565b60405180910390f35b61012860048036038101906101239190611bde565b610478565b005b610144600480360381019061013f9190611bde565b6104c2565b6040516101549493929190612046565b60405180910390f35b610177600480360381019061017291906125f1565b61102b565b005b610193600480360381019061018e91906126dd565b6113d3565b005b6101af60048036038101906101aa91906125f1565b611542565b005b6060600380546101c0906127b5565b80601f01602080910402602001604051908101604052809291908181526020018280546101ec906127b5565b80156102395780601f1061020e57610100808354040283529160200191610239565b820191906000526020600020905b81548152906001019060200180831161021c57829003601f168201915b5050505050905090565b61024b611835565b60008260405161025b9190612822565b908152602001604051809103902060120160009054906101000a900460ff166102b9576040517f08c379a00000000000000000000000000000000000000000000000000000000081526004016102b090612885565b60405180910390fd5b6000826040516102c99190612822565b90815260200160405180910390206014016040518060a00160405290816000820160009054906101000a900460ff161515151581526020016000820160019054906101000a900460ff161515151581526020016000820160029054906101000a900460ff161515151581526020016000820160039054906101000a900460ff161515151581526020016000820160049054906101000a900460ff1615151515815250509050919050565b61037b61186e565b6103836118a4565b61038b6118da565b610393611835565b6000600160008773ffffffffffffffffffffffffffffffffffffffff1673ffffffffffffffffffffffffffffffffffffffff16815260200190815260200160002080546103df906127b5565b80601f016020809104026020016040519081016040528092919081815260200182805461040b906127b5565b80156104585780601f1061042d57610100808354040283529160200191610458565b820191906000526020600020905b81548152906001019060200180831161043b57829003601f168201915b50505050509050610468816104c2565b9450945094509450509193509193565b80600390816104879190612a5b565b507f40a166db587ec103f66a58962fcbee2d88c47b4b400e972cd23af7e15ef7908b816040516104b79190611a73565b60405180910390a150565b6104ca61186e565b6104d26118a4565b6104da6118da565b6104e2611835565b6000856040516104f29190612822565b908152602001604051809103902060120160009054906101000a900460ff16610550576040517f08c379a000000000000000000000000000000000000000000000000000000000815260040161054790612885565b60405180910390fd5b600080866040516105619190612822565b908152602001604051809103902090506040518060c0016040528082600001805461058b906127b5565b80601f01602080910402602001604051908101604052809291908181526020018280546105b7906127b5565b80156106045780601f106105d957610100808354040283529160200191610604565b820191906000526020600020905b8154815290600101906020018083116105e757829003601f168201915b5050505050815260200182600101805461061d906127b5565b80601f0160208091040260200160405190810160405280929190818152602001828054610649906127b5565b80156106965780601f1061066b57610100808354040283529160200191610696565b820191906000526020600020905b81548152906001019060200180831161067957829003601f168201915b505050505081526020018260030180546106af906127b5565b80601f01602080910402602001604051908101604052809291908181526020018280546106db906127b5565b80156107285780601f106106fd57610100808354040283529160200191610728565b820191906000526020600020905b81548152906001019060200180831161070b57829003601f168201915b50505050508152602001826004018054610741906127b5565b80601f016020809104026020016040519081016040528092919081815260200182805461076d906127b5565b80156107ba5780601f1061078f576101008083540402835291602001916107ba565b820191906000526020600020905b81548152906001019060200180831161079d57829003601f168201915b505050505081526020018260050180546107d3906127b5565b80601f01602080910402602001604051908101604052809291908181526020018280546107ff906127b5565b801561084c5780601f106108215761010080835404028352916020019161084c565b820191906000526020600020905b81548152906001019060200180831161082f57829003601f168201915b50505050508152602001826008018054610865906127b5565b80601f0160208091040260200160405190810160405280929190818152602001828054610891906127b5565b80156108de5780601f106108b3576101008083540402835291602001916108de565b820191906000526020600020905b8154815290600101906020018083116108c157829003601f168201915b505050505081525094506040518060c00160405280826006018054610902906127b5565b80601f016020809104026020016040519081016040528092919081815260200182805461092e906127b5565b801561097b5780601f106109505761010080835404028352916020019161097b565b820191906000526020600020905b81548152906001019060200180831161095e57829003601f168201915b50505050508152602001826007018054610994906127b5565b80601f01602080910402602001604051908101604052809291908181526020018280546109c0906127b5565b8015610a0d5780601f106109e257610100808354040283529160200191610a0d565b820191906000526020600020905b8154815290600101906020018083116109f057829003601f168201915b50505050508152602001826009018054610a26906127b5565b80601f0160208091040260200160405190810160405280929190818152602001828054610a52906127b5565b8015610a9f5780601f10610a7457610100808354040283529160200191610a9f565b820191906000526020600020905b815481529060010190602001808311610a8257829003601f168201915b5050505050815260200182600f018054610ab8906127b5565b80601f0160208091040260200160405190810160405280929190818152602001828054610ae4906127b5565b8015610b315780601f10610b0657610100808354040283529160200191610b31565b820191906000526020600020905b815481529060010190602001808311610b1457829003601f168201915b5050505050815260200182601001805480602002602001604051908101604052809291908181526020016000905b82821015610c0b578382906000526020600020018054610b7e906127b5565b80601f0160208091040260200160405190810160405280929190818152602001828054610baa906127b5565b8015610bf75780601f10610bcc57610100808354040283529160200191610bf7565b820191906000526020600020905b815481529060010190602001808311610bda57829003601f168201915b505050505081526020019060010190610b5f565b505050508152602001826011018054610c23906127b5565b80601f0160208091040260200160405190810160405280929190818152602001828054610c4f906127b5565b8015610c9c5780601f10610c7157610100808354040283529160200191610c9c565b820191906000526020600020905b815481529060010190602001808311610c7f57829003601f168201915b505050505081525093506040518060a0016040528082600a018054610cc0906127b5565b80601f0160208091040260200160405190810160405280929190818152602001828054610cec906127b5565b8015610d395780601f10610d0e57610100808354040283529160200191610d39565b820191906000526020600020905b815481529060010190602001808311610d1c57829003601f168201915b5050505050815260200182600b018054610d52906127b5565b80601f0160208091040260200160405190810160405280929190818152602001828054610d7e906127b5565b8015610dcb5780601f10610da057610100808354040283529160200191610dcb565b820191906000526020600020905b815481529060010190602001808311610dae57829003601f168201915b5050505050815260200182600c018054610de4906127b5565b80601f0160208091040260200160405190810160405280929190818152602001828054610e10906127b5565b8015610e5d5780601f10610e3257610100808354040283529160200191610e5d565b820191906000526020600020905b815481529060010190602001808311610e4057829003601f168201915b5050505050815260200182600d018054610e76906127b5565b80601f0160208091040260200160405190810160405280929190818152602001828054610ea2906127b5565b8015610eef5780601f10610ec457610100808354040283529160200191610eef565b820191906000526020600020905b815481529060010190602001808311610ed257829003601f168201915b5050505050815260200182600e018054610f08906127b5565b80601f0160208091040260200160405190810160405280929190818152602001828054610f34906127b5565b8015610f815780601f10610f5657610100808354040283529160200191610f81565b820191906000526020600020905b815481529060010190602001808311610f6457829003601f168201915b50505050508152509250806014016040518060a00160405290816000820160009054906101000a900460ff161515151581526020016000820160019054906101000a900460ff161515151581526020016000820160029054906101000a900460ff161515151581526020016000820160039054906101000a900460ff161515151581526020016000820160049054906101000a900460ff1615151515815250509150509193509193565b8460028160405161103c9190612822565b908152602001604051809103902060009054906101000a900460ff1615611098576040517f08c379a000000000000000000000000000000000000000000000000000000000815260040161108f90612b79565b60405180910390fd5b600080876040516110a99190612822565b9081526020016040518091039020905085600001518160000190816110ce9190612a5b565b5085602001518160010190816110e49190612a5b565b50868160020190816110f69190612a5b565b50856040015181600301908161110c9190612a5b565b5085606001518160040190816111229190612a5b565b5085608001518160050190816111389190612a5b565b508560a0015181600801908161114e9190612a5b565b5084600001518160060190816111649190612a5b565b50846020015181600701908161117a9190612a5b565b5084604001518160090190816111909190612a5b565b50836000015181600a0190816111a69190612a5b565b50836020015181600b0190816111bc9190612a5b565b50836040015181600c0190816111d29190612a5b565b50836060015181600d0190816111e89190612a5b565b50836080015181600e0190816111fe9190612a5b565b50846060015181600f0190816112149190612a5b565b508460800151816010019080519060200190611231929190611909565b508460a001518160110190816112479190612a5b565b5060018160120160006101000a81548160ff021916908315150217905550828160140160008201518160000160006101000a81548160ff02191690831515021790555060208201518160000160016101000a81548160ff02191690831515021790555060408201518160000160026101000a81548160ff02191690831515021790555060608201518160000160036101000a81548160ff02191690831515021790555060808201518160000160046101000a81548160ff021916908315150217905550905050600160028860405161131f9190612822565b908152602001604051809103902060006101000a81548160ff02191690831515021790555086600160003373ffffffffffffffffffffffffffffffffffffffff1673ffffffffffffffffffffffffffffffffffffffff16815260200190815260200160002090816113909190612a5b565b507f673b132bfab7898651385299bf51a81f5d71d70c785d2c713bce0b05613b951887336040516113c2929190612ba8565b60405180910390a150505050505050565b6000866040516113e39190612822565b908152602001604051809103902060120160009054906101000a900460ff16611441576040517f08c379a000000000000000000000000000000000000000000000000000000000815260040161143890612885565b60405180910390fd5b600080876040516114529190612822565b90815260200160405180910390209050858160140160000160006101000a81548160ff021916908315150217905550848160140160000160016101000a81548160ff021916908315150217905550838160140160000160026101000a81548160ff021916908315150217905550828160140160000160036101000a81548160ff021916908315150217905550818160140160000160046101000a81548160ff0219169083151502179055507f45f3996280be4294c13b2ea55a6da17f17a8845cb547c6112a1ec74c608ad0dc8782601401604051611531929190612d2d565b60405180910390a150505050505050565b6000856040516115529190612822565b908152602001604051809103902060120160009054906101000a900460ff166115b0576040517f08c379a00000000000000000000000000000000000000000000000000000000081526004016115a790612885565b60405180910390fd5b600080866040516115c19190612822565b9081526020016040518091039020905084600001518160000190816115e69190612a5b565b5084602001518160010190816115fc9190612a5b565b5084604001518160030190816116129190612a5b565b5084606001518160040190816116289190612a5b565b50846080015181600501908161163e9190612a5b565b508460a001518160080190816116549190612a5b565b50836000015181600601908161166a9190612a5b565b5083602001518160070190816116809190612a5b565b5083604001518160090190816116969190612a5b565b50826000015181600a0190816116ac9190612a5b565b50826020015181600b0190816116c29190612a5b565b50826040015181600c0190816116d89190612a5b565b50826060015181600d0190816116ee9190612a5b565b50826080015181600e0190816117049190612a5b565b50836060015181600f01908161171a9190612a5b565b508360800151816010019080519060200190611737929190611909565b508360a0015181601101908161174d9190612a5b565b50818160140160008201518160000160006101000a81548160ff02191690831515021790555060208201518160000160016101000a81548160ff02191690831515021790555060408201518160000160026101000a81548160ff02191690831515021790555060608201518160000160036101000a81548160ff02191690831515021790555060808201518160000160046101000a81548160ff0219169083151502179055509050507f19149b23963298870f5230f486f4c6f30ae5baa1c8d814e0984a9ec3a820de53866040516118259190611a73565b60405180910390a1505050505050565b6040518060a001604052806000151581526020016000151581526020016000151581526020016000151581526020016000151581525090565b6040518060c001604052806060815260200160608152602001606081526020016060815260200160608152602001606081525090565b6040518060c001604052806060815260200160608152602001606081526020016060815260200160608152602001606081525090565b6040518060a0016040528060608152602001606081526020016060815260200160608152602001606081525090565b828054828255906000526020600020908101928215611951579160200282015b828111156119505782518290816119409190612a5b565b5091602001919060010190611929565b5b50905061195e9190611962565b5090565b5b8082111561198257600081816119799190611986565b50600101611963565b5090565b508054611992906127b5565b6000825580601f106119a457506119c3565b601f0160209004906000526020600020908101906119c291906119c6565b5b50565b5b808211156119df5760008160009055506001016119c7565b5090565b600081519050919050565b600082825260208201905092915050565b60005b83811015611a1d578082015181840152602081019050611a02565b60008484015250505050565b6000601f19601f8301169050919050565b6000611a45826119e3565b611a4f81856119ee565b9350611a5f8185602086016119ff565b611a6881611a29565b840191505092915050565b60006020820190508181036000830152611a8d8184611a3a565b905092915050565b6000604051905090565b600080fd5b600080fd5b600080fd5b600080fd5b7f4e487b7100000000000000000000000000000000000000000000000000000000600052604160045260246000fd5b611aeb82611a29565b810181811067ffffffffffffffff82111715611b0a57611b09611ab3565b5b80604052505050565b6000611b1d611a95565b9050611b298282611ae2565b919050565b600067ffffffffffffffff821115611b4957611b48611ab3565b5b611b5282611a29565b9050602081019050919050565b82818337600083830152505050565b6000611b81611b7c84611b2e565b611b13565b905082815260208101848484011115611b9d57611b9c611aae565b5b611ba8848285611b5f565b509392505050565b600082601f830112611bc557611bc4611aa9565b5b8135611bd5848260208601611b6e565b91505092915050565b600060208284031215611bf457611bf3611a9f565b5b600082013567ffffffffffffffff811115611c1257611c11611aa4565b5b611c1e84828501611bb0565b91505092915050565b60008115159050919050565b611c3c81611c27565b82525050565b60a082016000820151611c586000850182611c33565b506020820151611c6b6020850182611c33565b506040820151611c7e6040850182611c33565b506060820151611c916060850182611c33565b506080820151611ca46080850182611c33565b50505050565b600060a082019050611cbf6000830184611c42565b92915050565b600073ffffffffffffffffffffffffffffffffffffffff82169050919050565b6000611cf082611cc5565b9050919050565b611d0081611ce5565b8114611d0b57600080fd5b50565b600081359050611d1d81611cf7565b92915050565b600060208284031215611d3957611d38611a9f565b5b6000611d4784828501611d0e565b91505092915050565b600082825260208201905092915050565b6000611d6c826119e3565b611d768185611d50565b9350611d868185602086016119ff565b611d8f81611a29565b840191505092915050565b600060c0830160008301518482036000860152611db78282611d61565b91505060208301518482036020860152611dd18282611d61565b91505060408301518482036040860152611deb8282611d61565b91505060608301518482036060860152611e058282611d61565b91505060808301518482036080860152611e1f8282611d61565b91505060a083015184820360a0860152611e398282611d61565b9150508091505092915050565b600081519050919050565b600082825260208201905092915050565b6000819050602082019050919050565b6000611e7e8383611d61565b905092915050565b6000602082019050919050565b6000611e9e82611e46565b611ea88185611e51565b935083602082028501611eba85611e62565b8060005b85811015611ef65784840389528151611ed78582611e72565b9450611ee283611e86565b925060208a01995050600181019050611ebe565b50829750879550505050505092915050565b600060c0830160008301518482036000860152611f258282611d61565b91505060208301518482036020860152611f3f8282611d61565b91505060408301518482036040860152611f598282611d61565b91505060608301518482036060860152611f738282611d61565b91505060808301518482036080860152611f8d8282611e93565b91505060a083015184820360a0860152611fa78282611d61565b9150508091505092915050565b600060a0830160008301518482036000860152611fd18282611d61565b91505060208301518482036020860152611feb8282611d61565b915050604083015184820360408601526120058282611d61565b9150506060830151848203606086015261201f8282611d61565b915050608083015184820360808601526120398282611d61565b9150508091505092915050565b60006101008201905081810360008301526120618187611d9a565b905081810360208301526120758186611f08565b905081810360408301526120898185611fb4565b90506120986060830184611c42565b95945050505050565b600080fd5b600080fd5b600060c082840312156120c1576120c06120a1565b5b6120cb60c0611b13565b9050600082013567ffffffffffffffff8111156120eb576120ea6120a6565b5b6120f784828501611bb0565b600083015250602082013567ffffffffffffffff81111561211b5761211a6120a6565b5b61212784828501611bb0565b602083015250604082013567ffffffffffffffff81111561214b5761214a6120a6565b5b61215784828501611bb0565b604083015250606082013567ffffffffffffffff81111561217b5761217a6120a6565b5b61218784828501611bb0565b606083015250608082013567ffffffffffffffff8111156121ab576121aa6120a6565b5b6121b784828501611bb0565b60808301525060a082013567ffffffffffffffff8111156121db576121da6120a6565b5b6121e784828501611bb0565b60a08301525092915050565b600067ffffffffffffffff82111561220e5761220d611ab3565b5b602082029050602081019050919050565b600080fd5b6000612237612232846121f3565b611b13565b9050808382526020820190506020840283018581111561225a5761225961221f565b5b835b818110156122a157803567ffffffffffffffff81111561227f5761227e611aa9565b5b80860161228c8982611bb0565b8552602085019450505060208101905061225c565b5050509392505050565b600082601f8301126122c0576122bf611aa9565b5b81356122d0848260208601612224565b91505092915050565b600060c082840312156122ef576122ee6120a1565b5b6122f960c0611b13565b9050600082013567ffffffffffffffff811115612319576123186120a6565b5b61232584828501611bb0565b600083015250602082013567ffffffffffffffff811115612349576123486120a6565b5b61235584828501611bb0565b602083015250604082013567ffffffffffffffff811115612379576123786120a6565b5b61238584828501611bb0565b604083015250606082013567ffffffffffffffff8111156123a9576123a86120a6565b5b6123b584828501611bb0565b606083015250608082013567ffffffffffffffff8111156123d9576123d86120a6565b5b6123e5848285016122ab565b60808301525060a082013567ffffffffffffffff811115612409576124086120a6565b5b61241584828501611bb0565b60a08301525092915050565b600060a08284031215612437576124366120a1565b5b61244160a0611b13565b9050600082013567ffffffffffffffff811115612461576124606120a6565b5b61246d84828501611bb0565b600083015250602082013567ffffffffffffffff811115612491576124906120a6565b5b61249d84828501611bb0565b602083015250604082013567ffffffffffffffff8111156124c1576124c06120a6565b5b6124cd84828501611bb0565b604083015250606082013567ffffffffffffffff8111156124f1576124f06120a6565b5b6124fd84828501611bb0565b606083015250608082013567ffffffffffffffff811115612521576125206120a6565b5b61252d84828501611bb0565b60808301525092915050565b61254281611c27565b811461254d57600080fd5b50565b60008135905061255f81612539565b92915050565b600060a0828403121561257b5761257a6120a1565b5b61258560a0611b13565b9050600061259584828501612550565b60008301525060206125a984828501612550565b60208301525060406125bd84828501612550565b60408301525060606125d184828501612550565b60608301525060806125e584828501612550565b60808301525092915050565b6000806000806000610120868803121561260e5761260d611a9f565b5b600086013567ffffffffffffffff81111561262c5761262b611aa4565b5b61263888828901611bb0565b955050602086013567ffffffffffffffff81111561265957612658611aa4565b5b612665888289016120ab565b945050604086013567ffffffffffffffff81111561268657612685611aa4565b5b612692888289016122d9565b935050606086013567ffffffffffffffff8111156126b3576126b2611aa4565b5b6126bf88828901612421565b92505060806126d088828901612565565b9150509295509295909350565b60008060008060008060c087890312156126fa576126f9611a9f565b5b600087013567ffffffffffffffff81111561271857612717611aa4565b5b61272489828a01611bb0565b965050602061273589828a01612550565b955050604061274689828a01612550565b945050606061275789828a01612550565b935050608061276889828a01612550565b92505060a061277989828a01612550565b9150509295509295509295565b7f4e487b7100000000000000000000000000000000000000000000000000000000600052602260045260246000fd5b600060028204905060018216806127cd57607f821691505b6020821081036127e0576127df612786565b5b50919050565b600081905092915050565b60006127fc826119e3565b61280681856127e6565b93506128168185602086016119ff565b80840191505092915050565b600061282e82846127f1565b915081905092915050565b7f5573657220646f6573206e6f742065786973742e000000000000000000000000600082015250565b600061286f6014836119ee565b915061287a82612839565b602082019050919050565b6000602082019050818103600083015261289e81612862565b9050919050565b60008190508160005260206000209050919050565b60006020601f8301049050919050565b600082821b905092915050565b6000600883026129077fffffffffffffffffffffffffffffffffffffffffffffffffffffffffffffffff826128ca565b61291186836128ca565b95508019841693508086168417925050509392505050565b6000819050919050565b6000819050919050565b600061295861295361294e84612929565b612933565b612929565b9050919050565b6000819050919050565b6129728361293d565b61298661297e8261295f565b8484546128d7565b825550505050565b600090565b61299b61298e565b6129a6818484612969565b505050565b5b818110156129ca576129bf600082612993565b6001810190506129ac565b5050565b601f821115612a0f576129e0816128a5565b6129e9846128ba565b810160208510156129f8578190505b612a0c612a04856128ba565b8301826129ab565b50505b505050565b600082821c905092915050565b6000612a3260001984600802612a14565b1980831691505092915050565b6000612a4b8383612a21565b9150826002028217905092915050565b612a64826119e3565b67ffffffffffffffff811115612a7d57612a7c611ab3565b5b612a8782546127b5565b612a928282856129ce565b600060209050601f831160018114612ac55760008415612ab3578287015190505b612abd8582612a3f565b865550612b25565b601f198416612ad3866128a5565b60005b82811015612afb57848901518255600182019150602085019450602081019050612ad6565b86831015612b185784890151612b14601f891682612a21565b8355505b6001600288020188555050505b505050505050565b7f557365726e616d6520616c7265616479206578697374732e0000000000000000600082015250565b6000612b636018836119ee565b9150612b6e82612b2d565b602082019050919050565b60006020820190508181036000830152612b9281612b56565b9050919050565b612ba281611ce5565b82525050565b60006040820190508181036000830152612bc28185611a3a565b9050612bd16020830184612b99565b9392505050565b60008160001c9050919050565b600060ff82169050919050565b6000612c05612c0083612bd8565b612be5565b9050919050565b60008160081c9050919050565b6000612c2c612c2783612c0c565b612be5565b9050919050565b60008160101c9050919050565b6000612c53612c4e83612c33565b612be5565b9050919050565b60008160181c9050919050565b6000612c7a612c7583612c5a565b612be5565b9050919050565b60008160201c9050919050565b6000612ca1612c9c83612c81565b612be5565b9050919050565b60a082016000808301549050612cbd81612bf2565b612cca6000860182611c33565b50612cd481612c19565b612ce16020860182611c33565b50612ceb81612c40565b612cf86040860182611c33565b50612d0281612c67565b612d0f6060860182611c33565b50612d1981612c8e565b612d266080860182611c33565b5050505050565b600060c0820190508181036000830152612d478185611a3a565b9050612d566020830184612ca8565b939250505056fea2646970667358221220423bcbef387ca0dc4d1345ac0106c6cb95cc9ab1d6ad64ccab8c91d1d768244564736f6c63430008120033",
			"opcodes": "PUSH1 0x80 PUSH1 0x40 MSTORE CALLVALUE DUP1 ISZERO PUSH2 0x10 JUMPI PUSH1 0x0 DUP1 REVERT JUMPDEST POP PUSH2 0x2D93 DUP1 PUSH2 0x20 PUSH1 0x0 CODECOPY PUSH1 0x0 RETURN INVALID PUSH1 0x80 PUSH1 0x40 MSTORE CALLVALUE DUP1 ISZERO PUSH2 0x10 JUMPI PUSH1 0x0 DUP1 REVERT JUMPDEST POP PUSH1 0x4 CALLDATASIZE LT PUSH2 0x88 JUMPI PUSH1 0x0 CALLDATALOAD PUSH1 0xE0 SHR DUP1 PUSH4 0x9F42AF63 GT PUSH2 0x5B JUMPI DUP1 PUSH4 0x9F42AF63 EQ PUSH2 0x12A JUMPI DUP1 PUSH4 0xBB6228B0 EQ PUSH2 0x15D JUMPI DUP1 PUSH4 0xD1577CAC EQ PUSH2 0x179 JUMPI DUP1 PUSH4 0xF86A29C7 EQ PUSH2 0x195 JUMPI PUSH2 0x88 JUMP JUMPDEST DUP1 PUSH4 0x1865C57D EQ PUSH2 0x8D JUMPI DUP1 PUSH4 0x320BA8F7 EQ PUSH2 0xAB JUMPI DUP1 PUSH4 0x69C212F6 EQ PUSH2 0xDB JUMPI DUP1 PUSH4 0x79FF2E6D EQ PUSH2 0x10E JUMPI JUMPDEST PUSH1 0x0 DUP1 REVERT JUMPDEST PUSH2 0x95 PUSH2 0x1B1 JUMP JUMPDEST PUSH1 0x40 MLOAD PUSH2 0xA2 SWAP2 SWAP1 PUSH2 0x1A73 JUMP JUMPDEST PUSH1 0x40 MLOAD DUP1 SWAP2 SUB SWAP1 RETURN JUMPDEST PUSH2 0xC5 PUSH1 0x4 DUP1 CALLDATASIZE SUB DUP2 ADD SWAP1 PUSH2 0xC0 SWAP2 SWAP1 PUSH2 0x1BDE JUMP JUMPDEST PUSH2 0x243 JUMP JUMPDEST PUSH1 0x40 MLOAD PUSH2 0xD2 SWAP2 SWAP1 PUSH2 0x1CAA JUMP JUMPDEST PUSH1 0x40 MLOAD DUP1 SWAP2 SUB SWAP1 RETURN JUMPDEST PUSH2 0xF5 PUSH1 0x4 DUP1 CALLDATASIZE SUB DUP2 ADD SWAP1 PUSH2 0xF0 SWAP2 SWAP1 PUSH2 0x1D23 JUMP JUMPDEST PUSH2 0x373 JUMP JUMPDEST PUSH1 0x40 MLOAD PUSH2 0x105 SWAP5 SWAP4 SWAP3 SWAP2 SWAP1 PUSH2 0x2046 JUMP JUMPDEST PUSH1 0x40 MLOAD DUP1 SWAP2 SUB SWAP1 RETURN JUMPDEST PUSH2 0x128 PUSH1 0x4 DUP1 CALLDATASIZE SUB DUP2 ADD SWAP1 PUSH2 0x123 SWAP2 SWAP1 PUSH2 0x1BDE JUMP JUMPDEST PUSH2 0x478 JUMP JUMPDEST STOP JUMPDEST PUSH2 0x144 PUSH1 0x4 DUP1 CALLDATASIZE SUB DUP2 ADD SWAP1 PUSH2 0x13F SWAP2 SWAP1 PUSH2 0x1BDE JUMP JUMPDEST PUSH2 0x4C2 JUMP JUMPDEST PUSH1 0x40 MLOAD PUSH2 0x154 SWAP5 SWAP4 SWAP3 SWAP2 SWAP1 PUSH2 0x2046 JUMP JUMPDEST PUSH1 0x40 MLOAD DUP1 SWAP2 SUB SWAP1 RETURN JUMPDEST PUSH2 0x177 PUSH1 0x4 DUP1 CALLDATASIZE SUB DUP2 ADD SWAP1 PUSH2 0x172 SWAP2 SWAP1 PUSH2 0x25F1 JUMP JUMPDEST PUSH2 0x102B JUMP JUMPDEST STOP JUMPDEST PUSH2 0x193 PUSH1 0x4 DUP1 CALLDATASIZE SUB DUP2 ADD SWAP1 PUSH2 0x18E SWAP2 SWAP1 PUSH2 0x26DD JUMP JUMPDEST PUSH2 0x13D3 JUMP JUMPDEST STOP JUMPDEST PUSH2 0x1AF PUSH1 0x4 DUP1 CALLDATASIZE SUB DUP2 ADD SWAP1 PUSH2 0x1AA SWAP2 SWAP1 PUSH2 0x25F1 JUMP JUMPDEST PUSH2 0x1542 JUMP JUMPDEST STOP JUMPDEST PUSH1 0x60 PUSH1 0x3 DUP1 SLOAD PUSH2 0x1C0 SWAP1 PUSH2 0x27B5 JUMP JUMPDEST DUP1 PUSH1 0x1F ADD PUSH1 0x20 DUP1 SWAP2 DIV MUL PUSH1 0x20 ADD PUSH1 0x40 MLOAD SWAP1 DUP2 ADD PUSH1 0x40 MSTORE DUP1 SWAP3 SWAP2 SWAP1 DUP2 DUP2 MSTORE PUSH1 0x20 ADD DUP3 DUP1 SLOAD PUSH2 0x1EC SWAP1 PUSH2 0x27B5 JUMP JUMPDEST DUP1 ISZERO PUSH2 0x239 JUMPI DUP1 PUSH1 0x1F LT PUSH2 0x20E JUMPI PUSH2 0x100 DUP1 DUP4 SLOAD DIV MUL DUP4 MSTORE SWAP2 PUSH1 0x20 ADD SWAP2 PUSH2 0x239 JUMP JUMPDEST DUP3 ADD SWAP2 SWAP1 PUSH1 0x0 MSTORE PUSH1 0x20 PUSH1 0x0 KECCAK256 SWAP1 JUMPDEST DUP2 SLOAD DUP2 MSTORE SWAP1 PUSH1 0x1 ADD SWAP1 PUSH1 0x20 ADD DUP1 DUP4 GT PUSH2 0x21C JUMPI DUP3 SWAP1 SUB PUSH1 0x1F AND DUP3 ADD SWAP2 JUMPDEST POP POP POP POP POP SWAP1 POP SWAP1 JUMP JUMPDEST PUSH2 0x24B PUSH2 0x1835 JUMP JUMPDEST PUSH1 0x0 DUP3 PUSH1 0x40 MLOAD PUSH2 0x25B SWAP2 SWAP1 PUSH2 0x2822 JUMP JUMPDEST SWAP1 DUP2 MSTORE PUSH1 0x20 ADD PUSH1 0x40 MLOAD DUP1 SWAP2 SUB SWAP1 KECCAK256 PUSH1 0x12 ADD PUSH1 0x0 SWAP1 SLOAD SWAP1 PUSH2 0x100 EXP SWAP1 DIV PUSH1 0xFF AND PUSH2 0x2B9 JUMPI PUSH1 0x40 MLOAD PUSH32 0x8C379A000000000000000000000000000000000000000000000000000000000 DUP2 MSTORE PUSH1 0x4 ADD PUSH2 0x2B0 SWAP1 PUSH2 0x2885 JUMP JUMPDEST PUSH1 0x40 MLOAD DUP1 SWAP2 SUB SWAP1 REVERT JUMPDEST PUSH1 0x0 DUP3 PUSH1 0x40 MLOAD PUSH2 0x2C9 SWAP2 SWAP1 PUSH2 0x2822 JUMP JUMPDEST SWAP1 DUP2 MSTORE PUSH1 0x20 ADD PUSH1 0x40 MLOAD DUP1 SWAP2 SUB SWAP1 KECCAK256 PUSH1 0x14 ADD PUSH1 0x40 MLOAD DUP1 PUSH1 0xA0 ADD PUSH1 0x40 MSTORE SWAP1 DUP2 PUSH1 0x0 DUP3 ADD PUSH1 0x0 SWAP1 SLOAD SWAP1 PUSH2 0x100 EXP SWAP1 DIV PUSH1 0xFF AND ISZERO ISZERO ISZERO ISZERO DUP2 MSTORE PUSH1 0x20 ADD PUSH1 0x0 DUP3 ADD PUSH1 0x1 SWAP1 SLOAD SWAP1 PUSH2 0x100 EXP SWAP1 DIV PUSH1 0xFF AND ISZERO ISZERO ISZERO ISZERO DUP2 MSTORE PUSH1 0x20 ADD PUSH1 0x0 DUP3 ADD PUSH1 0x2 SWAP1 SLOAD SWAP1 PUSH2 0x100 EXP SWAP1 DIV PUSH1 0xFF AND ISZERO ISZERO ISZERO ISZERO DUP2 MSTORE PUSH1 0x20 ADD PUSH1 0x0 DUP3 ADD PUSH1 0x3 SWAP1 SLOAD SWAP1 PUSH2 0x100 EXP SWAP1 DIV PUSH1 0xFF AND ISZERO ISZERO ISZERO ISZERO DUP2 MSTORE PUSH1 0x20 ADD PUSH1 0x0 DUP3 ADD PUSH1 0x4 SWAP1 SLOAD SWAP1 PUSH2 0x100 EXP SWAP1 DIV PUSH1 0xFF AND ISZERO ISZERO ISZERO ISZERO DUP2 MSTORE POP POP SWAP1 POP SWAP2 SWAP1 POP JUMP JUMPDEST PUSH2 0x37B PUSH2 0x186E JUMP JUMPDEST PUSH2 0x383 PUSH2 0x18A4 JUMP JUMPDEST PUSH2 0x38B PUSH2 0x18DA JUMP JUMPDEST PUSH2 0x393 PUSH2 0x1835 JUMP JUMPDEST PUSH1 0x0 PUSH1 0x1 PUSH1 0x0 DUP8 PUSH20 0xFFFFFFFFFFFFFFFFFFFFFFFFFFFFFFFFFFFFFFFF AND PUSH20 0xFFFFFFFFFFFFFFFFFFFFFFFFFFFFFFFFFFFFFFFF AND DUP2 MSTORE PUSH1 0x20 ADD SWAP1 DUP2 MSTORE PUSH1 0x20 ADD PUSH1 0x0 KECCAK256 DUP1 SLOAD PUSH2 0x3DF SWAP1 PUSH2 0x27B5 JUMP JUMPDEST DUP1 PUSH1 0x1F ADD PUSH1 0x20 DUP1 SWAP2 DIV MUL PUSH1 0x20 ADD PUSH1 0x40 MLOAD SWAP1 DUP2 ADD PUSH1 0x40 MSTORE DUP1 SWAP3 SWAP2 SWAP1 DUP2 DUP2 MSTORE PUSH1 0x20 ADD DUP3 DUP1 SLOAD PUSH2 0x40B SWAP1 PUSH2 0x27B5 JUMP JUMPDEST DUP1 ISZERO PUSH2 0x458 JUMPI DUP1 PUSH1 0x1F LT PUSH2 0x42D JUMPI PUSH2 0x100 DUP1 DUP4 SLOAD DIV MUL DUP4 MSTORE SWAP2 PUSH1 0x20 ADD SWAP2 PUSH2 0x458 JUMP JUMPDEST DUP3 ADD SWAP2 SWAP1 PUSH1 0x0 MSTORE PUSH1 0x20 PUSH1 0x0 KECCAK256 SWAP1 JUMPDEST DUP2 SLOAD DUP2 MSTORE SWAP1 PUSH1 0x1 ADD SWAP1 PUSH1 0x20 ADD DUP1 DUP4 GT PUSH2 0x43B JUMPI DUP3 SWAP1 SUB PUSH1 0x1F AND DUP3 ADD SWAP2 JUMPDEST POP POP POP POP POP SWAP1 POP PUSH2 0x468 DUP2 PUSH2 0x4C2 JUMP JUMPDEST SWAP5 POP SWAP5 POP SWAP5 POP SWAP5 POP POP SWAP2 SWAP4 POP SWAP2 SWAP4 JUMP JUMPDEST DUP1 PUSH1 0x3 SWAP1 DUP2 PUSH2 0x487 SWAP2 SWAP1 PUSH2 0x2A5B JUMP JUMPDEST POP PUSH32 0x40A166DB587EC103F66A58962FCBEE2D88C47B4B400E972CD23AF7E15EF7908B DUP2 PUSH1 0x40 MLOAD PUSH2 0x4B7 SWAP2 SWAP1 PUSH2 0x1A73 JUMP JUMPDEST PUSH1 0x40 MLOAD DUP1 SWAP2 SUB SWAP1 LOG1 POP JUMP JUMPDEST PUSH2 0x4CA PUSH2 0x186E JUMP JUMPDEST PUSH2 0x4D2 PUSH2 0x18A4 JUMP JUMPDEST PUSH2 0x4DA PUSH2 0x18DA JUMP JUMPDEST PUSH2 0x4E2 PUSH2 0x1835 JUMP JUMPDEST PUSH1 0x0 DUP6 PUSH1 0x40 MLOAD PUSH2 0x4F2 SWAP2 SWAP1 PUSH2 0x2822 JUMP JUMPDEST SWAP1 DUP2 MSTORE PUSH1 0x20 ADD PUSH1 0x40 MLOAD DUP1 SWAP2 SUB SWAP1 KECCAK256 PUSH1 0x12 ADD PUSH1 0x0 SWAP1 SLOAD SWAP1 PUSH2 0x100 EXP SWAP1 DIV PUSH1 0xFF AND PUSH2 0x550 JUMPI PUSH1 0x40 MLOAD PUSH32 0x8C379A000000000000000000000000000000000000000000000000000000000 DUP2 MSTORE PUSH1 0x4 ADD PUSH2 0x547 SWAP1 PUSH2 0x2885 JUMP JUMPDEST PUSH1 0x40 MLOAD DUP1 SWAP2 SUB SWAP1 REVERT JUMPDEST PUSH1 0x0 DUP1 DUP7 PUSH1 0x40 MLOAD PUSH2 0x561 SWAP2 SWAP1 PUSH2 0x2822 JUMP JUMPDEST SWAP1 DUP2 MSTORE PUSH1 0x20 ADD PUSH1 0x40 MLOAD DUP1 SWAP2 SUB SWAP1 KECCAK256 SWAP1 POP PUSH1 0x40 MLOAD DUP1 PUSH1 0xC0 ADD PUSH1 0x40 MSTORE DUP1 DUP3 PUSH1 0x0 ADD DUP1 SLOAD PUSH2 0x58B SWAP1 PUSH2 0x27B5 JUMP JUMPDEST DUP1 PUSH1 0x1F ADD PUSH1 0x20 DUP1 SWAP2 DIV MUL PUSH1 0x20 ADD PUSH1 0x40 MLOAD SWAP1 DUP2 ADD PUSH1 0x40 MSTORE DUP1 SWAP3 SWAP2 SWAP1 DUP2 DUP2 MSTORE PUSH1 0x20 ADD DUP3 DUP1 SLOAD PUSH2 0x5B7 SWAP1 PUSH2 0x27B5 JUMP JUMPDEST DUP1 ISZERO PUSH2 0x604 JUMPI DUP1 PUSH1 0x1F LT PUSH2 0x5D9 JUMPI PUSH2 0x100 DUP1 DUP4 SLOAD DIV MUL DUP4 MSTORE SWAP2 PUSH1 0x20 ADD SWAP2 PUSH2 0x604 JUMP JUMPDEST DUP3 ADD SWAP2 SWAP1 PUSH1 0x0 MSTORE PUSH1 0x20 PUSH1 0x0 KECCAK256 SWAP1 JUMPDEST DUP2 SLOAD DUP2 MSTORE SWAP1 PUSH1 0x1 ADD SWAP1 PUSH1 0x20 ADD DUP1 DUP4 GT PUSH2 0x5E7 JUMPI DUP3 SWAP1 SUB PUSH1 0x1F AND DUP3 ADD SWAP2 JUMPDEST POP POP POP POP POP DUP2 MSTORE PUSH1 0x20 ADD DUP3 PUSH1 0x1 ADD DUP1 SLOAD PUSH2 0x61D SWAP1 PUSH2 0x27B5 JUMP JUMPDEST DUP1 PUSH1 0x1F ADD PUSH1 0x20 DUP1 SWAP2 DIV MUL PUSH1 0x20 ADD PUSH1 0x40 MLOAD SWAP1 DUP2 ADD PUSH1 0x40 MSTORE DUP1 SWAP3 SWAP2 SWAP1 DUP2 DUP2 MSTORE PUSH1 0x20 ADD DUP3 DUP1 SLOAD PUSH2 0x649 SWAP1 PUSH2 0x27B5 JUMP JUMPDEST DUP1 ISZERO PUSH2 0x696 JUMPI DUP1 PUSH1 0x1F LT PUSH2 0x66B JUMPI PUSH2 0x100 DUP1 DUP4 SLOAD DIV MUL DUP4 MSTORE SWAP2 PUSH1 0x20 ADD SWAP2 PUSH2 0x696 JUMP JUMPDEST DUP3 ADD SWAP2 SWAP1 PUSH1 0x0 MSTORE PUSH1 0x20 PUSH1 0x0 KECCAK256 SWAP1 JUMPDEST DUP2 SLOAD DUP2 MSTORE SWAP1 PUSH1 0x1 ADD SWAP1 PUSH1 0x20 ADD DUP1 DUP4 GT PUSH2 0x679 JUMPI DUP3 SWAP1 SUB PUSH1 0x1F AND DUP3 ADD SWAP2 JUMPDEST POP POP POP POP POP DUP2 MSTORE PUSH1 0x20 ADD DUP3 PUSH1 0x3 ADD DUP1 SLOAD PUSH2 0x6AF SWAP1 PUSH2 0x27B5 JUMP JUMPDEST DUP1 PUSH1 0x1F ADD PUSH1 0x20 DUP1 SWAP2 DIV MUL PUSH1 0x20 ADD PUSH1 0x40 MLOAD SWAP1 DUP2 ADD PUSH1 0x40 MSTORE DUP1 SWAP3 SWAP2 SWAP1 DUP2 DUP2 MSTORE PUSH1 0x20 ADD DUP3 DUP1 SLOAD PUSH2 0x6DB SWAP1 PUSH2 0x27B5 JUMP JUMPDEST DUP1 ISZERO PUSH2 0x728 JUMPI DUP1 PUSH1 0x1F LT PUSH2 0x6FD JUMPI PUSH2 0x100 DUP1 DUP4 SLOAD DIV MUL DUP4 MSTORE SWAP2 PUSH1 0x20 ADD SWAP2 PUSH2 0x728 JUMP JUMPDEST DUP3 ADD SWAP2 SWAP1 PUSH1 0x0 MSTORE PUSH1 0x20 PUSH1 0x0 KECCAK256 SWAP1 JUMPDEST DUP2 SLOAD DUP2 MSTORE SWAP1 PUSH1 0x1 ADD SWAP1 PUSH1 0x20 ADD DUP1 DUP4 GT PUSH2 0x70B JUMPI DUP3 SWAP1 SUB PUSH1 0x1F AND DUP3 ADD SWAP2 JUMPDEST POP POP POP POP POP DUP2 MSTORE PUSH1 0x20 ADD DUP3 PUSH1 0x4 ADD DUP1 SLOAD PUSH2 0x741 SWAP1 PUSH2 0x27B5 JUMP JUMPDEST DUP1 PUSH1 0x1F ADD PUSH1 0x20 DUP1 SWAP2 DIV MUL PUSH1 0x20 ADD PUSH1 0x40 MLOAD SWAP1 DUP2 ADD PUSH1 0x40 MSTORE DUP1 SWAP3 SWAP2 SWAP1 DUP2 DUP2 MSTORE PUSH1 0x20 ADD DUP3 DUP1 SLOAD PUSH2 0x76D SWAP1 PUSH2 0x27B5 JUMP JUMPDEST DUP1 ISZERO PUSH2 0x7BA JUMPI DUP1 PUSH1 0x1F LT PUSH2 0x78F JUMPI PUSH2 0x100 DUP1 DUP4 SLOAD DIV MUL DUP4 MSTORE SWAP2 PUSH1 0x20 ADD SWAP2 PUSH2 0x7BA JUMP JUMPDEST DUP3 ADD SWAP2 SWAP1 PUSH1 0x0 MSTORE PUSH1 0x20 PUSH1 0x0 KECCAK256 SWAP1 JUMPDEST DUP2 SLOAD DUP2 MSTORE SWAP1 PUSH1 0x1 ADD SWAP1 PUSH1 0x20 ADD DUP1 DUP4 GT PUSH2 0x79D JUMPI DUP3 SWAP1 SUB PUSH1 0x1F AND DUP3 ADD SWAP2 JUMPDEST POP POP POP POP POP DUP2 MSTORE PUSH1 0x20 ADD DUP3 PUSH1 0x5 ADD DUP1 SLOAD PUSH2 0x7D3 SWAP1 PUSH2 0x27B5 JUMP JUMPDEST DUP1 PUSH1 0x1F ADD PUSH1 0x20 DUP1 SWAP2 DIV MUL PUSH1 0x20 ADD PUSH1 0x40 MLOAD SWAP1 DUP2 ADD PUSH1 0x40 MSTORE DUP1 SWAP3 SWAP2 SWAP1 DUP2 DUP2 MSTORE PUSH1 0x20 ADD DUP3 DUP1 SLOAD PUSH2 0x7FF SWAP1 PUSH2 0x27B5 JUMP JUMPDEST DUP1 ISZERO PUSH2 0x84C JUMPI DUP1 PUSH1 0x1F LT PUSH2 0x821 JUMPI PUSH2 0x100 DUP1 DUP4 SLOAD DIV MUL DUP4 MSTORE SWAP2 PUSH1 0x20 ADD SWAP2 PUSH2 0x84C JUMP JUMPDEST DUP3 ADD SWAP2 SWAP1 PUSH1 0x0 MSTORE PUSH1 0x20 PUSH1 0x0 KECCAK256 SWAP1 JUMPDEST DUP2 SLOAD DUP2 MSTORE SWAP1 PUSH1 0x1 ADD SWAP1 PUSH1 0x20 ADD DUP1 DUP4 GT PUSH2 0x82F JUMPI DUP3 SWAP1 SUB PUSH1 0x1F AND DUP3 ADD SWAP2 JUMPDEST POP POP POP POP POP DUP2 MSTORE PUSH1 0x20 ADD DUP3 PUSH1 0x8 ADD DUP1 SLOAD PUSH2 0x865 SWAP1 PUSH2 0x27B5 JUMP JUMPDEST DUP1 PUSH1 0x1F ADD PUSH1 0x20 DUP1 SWAP2 DIV MUL PUSH1 0x20 ADD PUSH1 0x40 MLOAD SWAP1 DUP2 ADD PUSH1 0x40 MSTORE DUP1 SWAP3 SWAP2 SWAP1 DUP2 DUP2 MSTORE PUSH1 0x20 ADD DUP3 DUP1 SLOAD PUSH2 0x891 SWAP1 PUSH2 0x27B5 JUMP JUMPDEST DUP1 ISZERO PUSH2 0x8DE JUMPI DUP1 PUSH1 0x1F LT PUSH2 0x8B3 JUMPI PUSH2 0x100 DUP1 DUP4 SLOAD DIV MUL DUP4 MSTORE SWAP2 PUSH1 0x20 ADD SWAP2 PUSH2 0x8DE JUMP JUMPDEST DUP3 ADD SWAP2 SWAP1 PUSH1 0x0 MSTORE PUSH1 0x20 PUSH1 0x0 KECCAK256 SWAP1 JUMPDEST DUP2 SLOAD DUP2 MSTORE SWAP1 PUSH1 0x1 ADD SWAP1 PUSH1 0x20 ADD DUP1 DUP4 GT PUSH2 0x8C1 JUMPI DUP3 SWAP1 SUB PUSH1 0x1F AND DUP3 ADD SWAP2 JUMPDEST POP POP POP POP POP DUP2 MSTORE POP SWAP5 POP PUSH1 0x40 MLOAD DUP1 PUSH1 0xC0 ADD PUSH1 0x40 MSTORE DUP1 DUP3 PUSH1 0x6 ADD DUP1 SLOAD PUSH2 0x902 SWAP1 PUSH2 0x27B5 JUMP JUMPDEST DUP1 PUSH1 0x1F ADD PUSH1 0x20 DUP1 SWAP2 DIV MUL PUSH1 0x20 ADD PUSH1 0x40 MLOAD SWAP1 DUP2 ADD PUSH1 0x40 MSTORE DUP1 SWAP3 SWAP2 SWAP1 DUP2 DUP2 MSTORE PUSH1 0x20 ADD DUP3 DUP1 SLOAD PUSH2 0x92E SWAP1 PUSH2 0x27B5 JUMP JUMPDEST DUP1 ISZERO PUSH2 0x97B JUMPI DUP1 PUSH1 0x1F LT PUSH2 0x950 JUMPI PUSH2 0x100 DUP1 DUP4 SLOAD DIV MUL DUP4 MSTORE SWAP2 PUSH1 0x20 ADD SWAP2 PUSH2 0x97B JUMP JUMPDEST DUP3 ADD SWAP2 SWAP1 PUSH1 0x0 MSTORE PUSH1 0x20 PUSH1 0x0 KECCAK256 SWAP1 JUMPDEST DUP2 SLOAD DUP2 MSTORE SWAP1 PUSH1 0x1 ADD SWAP1 PUSH1 0x20 ADD DUP1 DUP4 GT PUSH2 0x95E JUMPI DUP3 SWAP1 SUB PUSH1 0x1F AND DUP3 ADD SWAP2 JUMPDEST POP POP POP POP POP DUP2 MSTORE PUSH1 0x20 ADD DUP3 PUSH1 0x7 ADD DUP1 SLOAD PUSH2 0x994 SWAP1 PUSH2 0x27B5 JUMP JUMPDEST DUP1 PUSH1 0x1F ADD PUSH1 0x20 DUP1 SWAP2 DIV MUL PUSH1 0x20 ADD PUSH1 0x40 MLOAD SWAP1 DUP2 ADD PUSH1 0x40 MSTORE DUP1 SWAP3 SWAP2 SWAP1 DUP2 DUP2 MSTORE PUSH1 0x20 ADD DUP3 DUP1 SLOAD PUSH2 0x9C0 SWAP1 PUSH2 0x27B5 JUMP JUMPDEST DUP1 ISZERO PUSH2 0xA0D JUMPI DUP1 PUSH1 0x1F LT PUSH2 0x9E2 JUMPI PUSH2 0x100 DUP1 DUP4 SLOAD DIV MUL DUP4 MSTORE SWAP2 PUSH1 0x20 ADD SWAP2 PUSH2 0xA0D JUMP JUMPDEST DUP3 ADD SWAP2 SWAP1 PUSH1 0x0 MSTORE PUSH1 0x20 PUSH1 0x0 KECCAK256 SWAP1 JUMPDEST DUP2 SLOAD DUP2 MSTORE SWAP1 PUSH1 0x1 ADD SWAP1 PUSH1 0x20 ADD DUP1 DUP4 GT PUSH2 0x9F0 JUMPI DUP3 SWAP1 SUB PUSH1 0x1F AND DUP3 ADD SWAP2 JUMPDEST POP POP POP POP POP DUP2 MSTORE PUSH1 0x20 ADD DUP3 PUSH1 0x9 ADD DUP1 SLOAD PUSH2 0xA26 SWAP1 PUSH2 0x27B5 JUMP JUMPDEST DUP1 PUSH1 0x1F ADD PUSH1 0x20 DUP1 SWAP2 DIV MUL PUSH1 0x20 ADD PUSH1 0x40 MLOAD SWAP1 DUP2 ADD PUSH1 0x40 MSTORE DUP1 SWAP3 SWAP2 SWAP1 DUP2 DUP2 MSTORE PUSH1 0x20 ADD DUP3 DUP1 SLOAD PUSH2 0xA52 SWAP1 PUSH2 0x27B5 JUMP JUMPDEST DUP1 ISZERO PUSH2 0xA9F JUMPI DUP1 PUSH1 0x1F LT PUSH2 0xA74 JUMPI PUSH2 0x100 DUP1 DUP4 SLOAD DIV MUL DUP4 MSTORE SWAP2 PUSH1 0x20 ADD SWAP2 PUSH2 0xA9F JUMP JUMPDEST DUP3 ADD SWAP2 SWAP1 PUSH1 0x0 MSTORE PUSH1 0x20 PUSH1 0x0 KECCAK256 SWAP1 JUMPDEST DUP2 SLOAD DUP2 MSTORE SWAP1 PUSH1 0x1 ADD SWAP1 PUSH1 0x20 ADD DUP1 DUP4 GT PUSH2 0xA82 JUMPI DUP3 SWAP1 SUB PUSH1 0x1F AND DUP3 ADD SWAP2 JUMPDEST POP POP POP POP POP DUP2 MSTORE PUSH1 0x20 ADD DUP3 PUSH1 0xF ADD DUP1 SLOAD PUSH2 0xAB8 SWAP1 PUSH2 0x27B5 JUMP JUMPDEST DUP1 PUSH1 0x1F ADD PUSH1 0x20 DUP1 SWAP2 DIV MUL PUSH1 0x20 ADD PUSH1 0x40 MLOAD SWAP1 DUP2 ADD PUSH1 0x40 MSTORE DUP1 SWAP3 SWAP2 SWAP1 DUP2 DUP2 MSTORE PUSH1 0x20 ADD DUP3 DUP1 SLOAD PUSH2 0xAE4 SWAP1 PUSH2 0x27B5 JUMP JUMPDEST DUP1 ISZERO PUSH2 0xB31 JUMPI DUP1 PUSH1 0x1F LT PUSH2 0xB06 JUMPI PUSH2 0x100 DUP1 DUP4 SLOAD DIV MUL DUP4 MSTORE SWAP2 PUSH1 0x20 ADD SWAP2 PUSH2 0xB31 JUMP JUMPDEST DUP3 ADD SWAP2 SWAP1 PUSH1 0x0 MSTORE PUSH1 0x20 PUSH1 0x0 KECCAK256 SWAP1 JUMPDEST DUP2 SLOAD DUP2 MSTORE SWAP1 PUSH1 0x1 ADD SWAP1 PUSH1 0x20 ADD DUP1 DUP4 GT PUSH2 0xB14 JUMPI DUP3 SWAP1 SUB PUSH1 0x1F AND DUP3 ADD SWAP2 JUMPDEST POP POP POP POP POP DUP2 MSTORE PUSH1 0x20 ADD DUP3 PUSH1 0x10 ADD DUP1 SLOAD DUP1 PUSH1 0x20 MUL PUSH1 0x20 ADD PUSH1 0x40 MLOAD SWAP1 DUP2 ADD PUSH1 0x40 MSTORE DUP1 SWAP3 SWAP2 SWAP1 DUP2 DUP2 MSTORE PUSH1 0x20 ADD PUSH1 0x0 SWAP1 JUMPDEST DUP3 DUP3 LT ISZERO PUSH2 0xC0B JUMPI DUP4 DUP3 SWAP1 PUSH1 0x0 MSTORE PUSH1 0x20 PUSH1 0x0 KECCAK256 ADD DUP1 SLOAD PUSH2 0xB7E SWAP1 PUSH2 0x27B5 JUMP JUMPDEST DUP1 PUSH1 0x1F ADD PUSH1 0x20 DUP1 SWAP2 DIV MUL PUSH1 0x20 ADD PUSH1 0x40 MLOAD SWAP1 DUP2 ADD PUSH1 0x40 MSTORE DUP1 SWAP3 SWAP2 SWAP1 DUP2 DUP2 MSTORE PUSH1 0x20 ADD DUP3 DUP1 SLOAD PUSH2 0xBAA SWAP1 PUSH2 0x27B5 JUMP JUMPDEST DUP1 ISZERO PUSH2 0xBF7 JUMPI DUP1 PUSH1 0x1F LT PUSH2 0xBCC JUMPI PUSH2 0x100 DUP1 DUP4 SLOAD DIV MUL DUP4 MSTORE SWAP2 PUSH1 0x20 ADD SWAP2 PUSH2 0xBF7 JUMP JUMPDEST DUP3 ADD SWAP2 SWAP1 PUSH1 0x0 MSTORE PUSH1 0x20 PUSH1 0x0 KECCAK256 SWAP1 JUMPDEST DUP2 SLOAD DUP2 MSTORE SWAP1 PUSH1 0x1 ADD SWAP1 PUSH1 0x20 ADD DUP1 DUP4 GT PUSH2 0xBDA JUMPI DUP3 SWAP1 SUB PUSH1 0x1F AND DUP3 ADD SWAP2 JUMPDEST POP POP POP POP POP DUP2 MSTORE PUSH1 0x20 ADD SWAP1 PUSH1 0x1 ADD SWAP1 PUSH2 0xB5F JUMP JUMPDEST POP POP POP POP DUP2 MSTORE PUSH1 0x20 ADD DUP3 PUSH1 0x11 ADD DUP1 SLOAD PUSH2 0xC23 SWAP1 PUSH2 0x27B5 JUMP JUMPDEST DUP1 PUSH1 0x1F ADD PUSH1 0x20 DUP1 SWAP2 DIV MUL PUSH1 0x20 ADD PUSH1 0x40 MLOAD SWAP1 DUP2 ADD PUSH1 0x40 MSTORE DUP1 SWAP3 SWAP2 SWAP1 DUP2 DUP2 MSTORE PUSH1 0x20 ADD DUP3 DUP1 SLOAD PUSH2 0xC4F SWAP1 PUSH2 0x27B5 JUMP JUMPDEST DUP1 ISZERO PUSH2 0xC9C JUMPI DUP1 PUSH1 0x1F LT PUSH2 0xC71 JUMPI PUSH2 0x100 DUP1 DUP4 SLOAD DIV MUL DUP4 MSTORE SWAP2 PUSH1 0x20 ADD SWAP2 PUSH2 0xC9C JUMP JUMPDEST DUP3 ADD SWAP2 SWAP1 PUSH1 0x0 MSTORE PUSH1 0x20 PUSH1 0x0 KECCAK256 SWAP1 JUMPDEST DUP2 SLOAD DUP2 MSTORE SWAP1 PUSH1 0x1 ADD SWAP1 PUSH1 0x20 ADD DUP1 DUP4 GT PUSH2 0xC7F JUMPI DUP3 SWAP1 SUB PUSH1 0x1F AND DUP3 ADD SWAP2 JUMPDEST POP POP POP POP POP DUP2 MSTORE POP SWAP4 POP PUSH1 0x40 MLOAD DUP1 PUSH1 0xA0 ADD PUSH1 0x40 MSTORE DUP1 DUP3 PUSH1 0xA ADD DUP1 SLOAD PUSH2 0xCC0 SWAP1 PUSH2 0x27B5 JUMP JUMPDEST DUP1 PUSH1 0x1F ADD PUSH1 0x20 DUP1 SWAP2 DIV MUL PUSH1 0x20 ADD PUSH1 0x40 MLOAD SWAP1 DUP2 ADD PUSH1 0x40 MSTORE DUP1 SWAP3 SWAP2 SWAP1 DUP2 DUP2 MSTORE PUSH1 0x20 ADD DUP3 DUP1 SLOAD PUSH2 0xCEC SWAP1 PUSH2 0x27B5 JUMP JUMPDEST DUP1 ISZERO PUSH2 0xD39 JUMPI DUP1 PUSH1 0x1F LT PUSH2 0xD0E JUMPI PUSH2 0x100 DUP1 DUP4 SLOAD DIV MUL DUP4 MSTORE SWAP2 PUSH1 0x20 ADD SWAP2 PUSH2 0xD39 JUMP JUMPDEST DUP3 ADD SWAP2 SWAP1 PUSH1 0x0 MSTORE PUSH1 0x20 PUSH1 0x0 KECCAK256 SWAP1 JUMPDEST DUP2 SLOAD DUP2 MSTORE SWAP1 PUSH1 0x1 ADD SWAP1 PUSH1 0x20 ADD DUP1 DUP4 GT PUSH2 0xD1C JUMPI DUP3 SWAP1 SUB PUSH1 0x1F AND DUP3 ADD SWAP2 JUMPDEST POP POP POP POP POP DUP2 MSTORE PUSH1 0x20 ADD DUP3 PUSH1 0xB ADD DUP1 SLOAD PUSH2 0xD52 SWAP1 PUSH2 0x27B5 JUMP JUMPDEST DUP1 PUSH1 0x1F ADD PUSH1 0x20 DUP1 SWAP2 DIV MUL PUSH1 0x20 ADD PUSH1 0x40 MLOAD SWAP1 DUP2 ADD PUSH1 0x40 MSTORE DUP1 SWAP3 SWAP2 SWAP1 DUP2 DUP2 MSTORE PUSH1 0x20 ADD DUP3 DUP1 SLOAD PUSH2 0xD7E SWAP1 PUSH2 0x27B5 JUMP JUMPDEST DUP1 ISZERO PUSH2 0xDCB JUMPI DUP1 PUSH1 0x1F LT PUSH2 0xDA0 JUMPI PUSH2 0x100 DUP1 DUP4 SLOAD DIV MUL DUP4 MSTORE SWAP2 PUSH1 0x20 ADD SWAP2 PUSH2 0xDCB JUMP JUMPDEST DUP3 ADD SWAP2 SWAP1 PUSH1 0x0 MSTORE PUSH1 0x20 PUSH1 0x0 KECCAK256 SWAP1 JUMPDEST DUP2 SLOAD DUP2 MSTORE SWAP1 PUSH1 0x1 ADD SWAP1 PUSH1 0x20 ADD DUP1 DUP4 GT PUSH2 0xDAE JUMPI DUP3 SWAP1 SUB PUSH1 0x1F AND DUP3 ADD SWAP2 JUMPDEST POP POP POP POP POP DUP2 MSTORE PUSH1 0x20 ADD DUP3 PUSH1 0xC ADD DUP1 SLOAD PUSH2 0xDE4 SWAP1 PUSH2 0x27B5 JUMP JUMPDEST DUP1 PUSH1 0x1F ADD PUSH1 0x20 DUP1 SWAP2 DIV MUL PUSH1 0x20 ADD PUSH1 0x40 MLOAD SWAP1 DUP2 ADD PUSH1 0x40 MSTORE DUP1 SWAP3 SWAP2 SWAP1 DUP2 DUP2 MSTORE PUSH1 0x20 ADD DUP3 DUP1 SLOAD PUSH2 0xE10 SWAP1 PUSH2 0x27B5 JUMP JUMPDEST DUP1 ISZERO PUSH2 0xE5D JUMPI DUP1 PUSH1 0x1F LT PUSH2 0xE32 JUMPI PUSH2 0x100 DUP1 DUP4 SLOAD DIV MUL DUP4 MSTORE SWAP2 PUSH1 0x20 ADD SWAP2 PUSH2 0xE5D JUMP JUMPDEST DUP3 ADD SWAP2 SWAP1 PUSH1 0x0 MSTORE PUSH1 0x20 PUSH1 0x0 KECCAK256 SWAP1 JUMPDEST DUP2 SLOAD DUP2 MSTORE SWAP1 PUSH1 0x1 ADD SWAP1 PUSH1 0x20 ADD DUP1 DUP4 GT PUSH2 0xE40 JUMPI DUP3 SWAP1 SUB PUSH1 0x1F AND DUP3 ADD SWAP2 JUMPDEST POP POP POP POP POP DUP2 MSTORE PUSH1 0x20 ADD DUP3 PUSH1 0xD ADD DUP1 SLOAD PUSH2 0xE76 SWAP1 PUSH2 0x27B5 JUMP JUMPDEST DUP1 PUSH1 0x1F ADD PUSH1 0x20 DUP1 SWAP2 DIV MUL PUSH1 0x20 ADD PUSH1 0x40 MLOAD SWAP1 DUP2 ADD PUSH1 0x40 MSTORE DUP1 SWAP3 SWAP2 SWAP1 DUP2 DUP2 MSTORE PUSH1 0x20 ADD DUP3 DUP1 SLOAD PUSH2 0xEA2 SWAP1 PUSH2 0x27B5 JUMP JUMPDEST DUP1 ISZERO PUSH2 0xEEF JUMPI DUP1 PUSH1 0x1F LT PUSH2 0xEC4 JUMPI PUSH2 0x100 DUP1 DUP4 SLOAD DIV MUL DUP4 MSTORE SWAP2 PUSH1 0x20 ADD SWAP2 PUSH2 0xEEF JUMP JUMPDEST DUP3 ADD SWAP2 SWAP1 PUSH1 0x0 MSTORE PUSH1 0x20 PUSH1 0x0 KECCAK256 SWAP1 JUMPDEST DUP2 SLOAD DUP2 MSTORE SWAP1 PUSH1 0x1 ADD SWAP1 PUSH1 0x20 ADD DUP1 DUP4 GT PUSH2 0xED2 JUMPI DUP3 SWAP1 SUB PUSH1 0x1F AND DUP3 ADD SWAP2 JUMPDEST POP POP POP POP POP DUP2 MSTORE PUSH1 0x20 ADD DUP3 PUSH1 0xE ADD DUP1 SLOAD PUSH2 0xF08 SWAP1 PUSH2 0x27B5 JUMP JUMPDEST DUP1 PUSH1 0x1F ADD PUSH1 0x20 DUP1 SWAP2 DIV MUL PUSH1 0x20 ADD PUSH1 0x40 MLOAD SWAP1 DUP2 ADD PUSH1 0x40 MSTORE DUP1 SWAP3 SWAP2 SWAP1 DUP2 DUP2 MSTORE PUSH1 0x20 ADD DUP3 DUP1 SLOAD PUSH2 0xF34 SWAP1 PUSH2 0x27B5 JUMP JUMPDEST DUP1 ISZERO PUSH2 0xF81 JUMPI DUP1 PUSH1 0x1F LT PUSH2 0xF56 JUMPI PUSH2 0x100 DUP1 DUP4 SLOAD DIV MUL DUP4 MSTORE SWAP2 PUSH1 0x20 ADD SWAP2 PUSH2 0xF81 JUMP JUMPDEST DUP3 ADD SWAP2 SWAP1 PUSH1 0x0 MSTORE PUSH1 0x20 PUSH1 0x0 KECCAK256 SWAP1 JUMPDEST DUP2 SLOAD DUP2 MSTORE SWAP1 PUSH1 0x1 ADD SWAP1 PUSH1 0x20 ADD DUP1 DUP4 GT PUSH2 0xF64 JUMPI DUP3 SWAP1 SUB PUSH1 0x1F AND DUP3 ADD SWAP2 JUMPDEST POP POP POP POP POP DUP2 MSTORE POP SWAP3 POP DUP1 PUSH1 0x14 ADD PUSH1 0x40 MLOAD DUP1 PUSH1 0xA0 ADD PUSH1 0x40 MSTORE SWAP1 DUP2 PUSH1 0x0 DUP3 ADD PUSH1 0x0 SWAP1 SLOAD SWAP1 PUSH2 0x100 EXP SWAP1 DIV PUSH1 0xFF AND ISZERO ISZERO ISZERO ISZERO DUP2 MSTORE PUSH1 0x20 ADD PUSH1 0x0 DUP3 ADD PUSH1 0x1 SWAP1 SLOAD SWAP1 PUSH2 0x100 EXP SWAP1 DIV PUSH1 0xFF AND ISZERO ISZERO ISZERO ISZERO DUP2 MSTORE PUSH1 0x20 ADD PUSH1 0x0 DUP3 ADD PUSH1 0x2 SWAP1 SLOAD SWAP1 PUSH2 0x100 EXP SWAP1 DIV PUSH1 0xFF AND ISZERO ISZERO ISZERO ISZERO DUP2 MSTORE PUSH1 0x20 ADD PUSH1 0x0 DUP3 ADD PUSH1 0x3 SWAP1 SLOAD SWAP1 PUSH2 0x100 EXP SWAP1 DIV PUSH1 0xFF AND ISZERO ISZERO ISZERO ISZERO DUP2 MSTORE PUSH1 0x20 ADD PUSH1 0x0 DUP3 ADD PUSH1 0x4 SWAP1 SLOAD SWAP1 PUSH2 0x100 EXP SWAP1 DIV PUSH1 0xFF AND ISZERO ISZERO ISZERO ISZERO DUP2 MSTORE POP POP SWAP2 POP POP SWAP2 SWAP4 POP SWAP2 SWAP4 JUMP JUMPDEST DUP5 PUSH1 0x2 DUP2 PUSH1 0x40 MLOAD PUSH2 0x103C SWAP2 SWAP1 PUSH2 0x2822 JUMP JUMPDEST SWAP1 DUP2 MSTORE PUSH1 0x20 ADD PUSH1 0x40 MLOAD DUP1 SWAP2 SUB SWAP1 KECCAK256 PUSH1 0x0 SWAP1 SLOAD SWAP1 PUSH2 0x100 EXP SWAP1 DIV PUSH1 0xFF AND ISZERO PUSH2 0x1098 JUMPI PUSH1 0x40 MLOAD PUSH32 0x8C379A000000000000000000000000000000000000000000000000000000000 DUP2 MSTORE PUSH1 0x4 ADD PUSH2 0x108F SWAP1 PUSH2 0x2B79 JUMP JUMPDEST PUSH1 0x40 MLOAD DUP1 SWAP2 SUB SWAP1 REVERT JUMPDEST PUSH1 0x0 DUP1 DUP8 PUSH1 0x40 MLOAD PUSH2 0x10A9 SWAP2 SWAP1 PUSH2 0x2822 JUMP JUMPDEST SWAP1 DUP2 MSTORE PUSH1 0x20 ADD PUSH1 0x40 MLOAD DUP1 SWAP2 SUB SWAP1 KECCAK256 SWAP1 POP DUP6 PUSH1 0x0 ADD MLOAD DUP2 PUSH1 0x0 ADD SWAP1 DUP2 PUSH2 0x10CE SWAP2 SWAP1 PUSH2 0x2A5B JUMP JUMPDEST POP DUP6 PUSH1 0x20 ADD MLOAD DUP2 PUSH1 0x1 ADD SWAP1 DUP2 PUSH2 0x10E4 SWAP2 SWAP1 PUSH2 0x2A5B JUMP JUMPDEST POP DUP7 DUP2 PUSH1 0x2 ADD SWAP1 DUP2 PUSH2 0x10F6 SWAP2 SWAP1 PUSH2 0x2A5B JUMP JUMPDEST POP DUP6 PUSH1 0x40 ADD MLOAD DUP2 PUSH1 0x3 ADD SWAP1 DUP2 PUSH2 0x110C SWAP2 SWAP1 PUSH2 0x2A5B JUMP JUMPDEST POP DUP6 PUSH1 0x60 ADD MLOAD DUP2 PUSH1 0x4 ADD SWAP1 DUP2 PUSH2 0x1122 SWAP2 SWAP1 PUSH2 0x2A5B JUMP JUMPDEST POP DUP6 PUSH1 0x80 ADD MLOAD DUP2 PUSH1 0x5 ADD SWAP1 DUP2 PUSH2 0x1138 SWAP2 SWAP1 PUSH2 0x2A5B JUMP JUMPDEST POP DUP6 PUSH1 0xA0 ADD MLOAD DUP2 PUSH1 0x8 ADD SWAP1 DUP2 PUSH2 0x114E SWAP2 SWAP1 PUSH2 0x2A5B JUMP JUMPDEST POP DUP5 PUSH1 0x0 ADD MLOAD DUP2 PUSH1 0x6 ADD SWAP1 DUP2 PUSH2 0x1164 SWAP2 SWAP1 PUSH2 0x2A5B JUMP JUMPDEST POP DUP5 PUSH1 0x20 ADD MLOAD DUP2 PUSH1 0x7 ADD SWAP1 DUP2 PUSH2 0x117A SWAP2 SWAP1 PUSH2 0x2A5B JUMP JUMPDEST POP DUP5 PUSH1 0x40 ADD MLOAD DUP2 PUSH1 0x9 ADD SWAP1 DUP2 PUSH2 0x1190 SWAP2 SWAP1 PUSH2 0x2A5B JUMP JUMPDEST POP DUP4 PUSH1 0x0 ADD MLOAD DUP2 PUSH1 0xA ADD SWAP1 DUP2 PUSH2 0x11A6 SWAP2 SWAP1 PUSH2 0x2A5B JUMP JUMPDEST POP DUP4 PUSH1 0x20 ADD MLOAD DUP2 PUSH1 0xB ADD SWAP1 DUP2 PUSH2 0x11BC SWAP2 SWAP1 PUSH2 0x2A5B JUMP JUMPDEST POP DUP4 PUSH1 0x40 ADD MLOAD DUP2 PUSH1 0xC ADD SWAP1 DUP2 PUSH2 0x11D2 SWAP2 SWAP1 PUSH2 0x2A5B JUMP JUMPDEST POP DUP4 PUSH1 0x60 ADD MLOAD DUP2 PUSH1 0xD ADD SWAP1 DUP2 PUSH2 0x11E8 SWAP2 SWAP1 PUSH2 0x2A5B JUMP JUMPDEST POP DUP4 PUSH1 0x80 ADD MLOAD DUP2 PUSH1 0xE ADD SWAP1 DUP2 PUSH2 0x11FE SWAP2 SWAP1 PUSH2 0x2A5B JUMP JUMPDEST POP DUP5 PUSH1 0x60 ADD MLOAD DUP2 PUSH1 0xF ADD SWAP1 DUP2 PUSH2 0x1214 SWAP2 SWAP1 PUSH2 0x2A5B JUMP JUMPDEST POP DUP5 PUSH1 0x80 ADD MLOAD DUP2 PUSH1 0x10 ADD SWAP1 DUP1 MLOAD SWAP1 PUSH1 0x20 ADD SWAP1 PUSH2 0x1231 SWAP3 SWAP2 SWAP1 PUSH2 0x1909 JUMP JUMPDEST POP DUP5 PUSH1 0xA0 ADD MLOAD DUP2 PUSH1 0x11 ADD SWAP1 DUP2 PUSH2 0x1247 SWAP2 SWAP1 PUSH2 0x2A5B JUMP JUMPDEST POP PUSH1 0x1 DUP2 PUSH1 0x12 ADD PUSH1 0x0 PUSH2 0x100 EXP DUP2 SLOAD DUP2 PUSH1 0xFF MUL NOT AND SWAP1 DUP4 ISZERO ISZERO MUL OR SWAP1 SSTORE POP DUP3 DUP2 PUSH1 0x14 ADD PUSH1 0x0 DUP3 ADD MLOAD DUP2 PUSH1 0x0 ADD PUSH1 0x0 PUSH2 0x100 EXP DUP2 SLOAD DUP2 PUSH1 0xFF MUL NOT AND SWAP1 DUP4 ISZERO ISZERO MUL OR SWAP1 SSTORE POP PUSH1 0x20 DUP3 ADD MLOAD DUP2 PUSH1 0x0 ADD PUSH1 0x1 PUSH2 0x100 EXP DUP2 SLOAD DUP2 PUSH1 0xFF MUL NOT AND SWAP1 DUP4 ISZERO ISZERO MUL OR SWAP1 SSTORE POP PUSH1 0x40 DUP3 ADD MLOAD DUP2 PUSH1 0x0 ADD PUSH1 0x2 PUSH2 0x100 EXP DUP2 SLOAD DUP2 PUSH1 0xFF MUL NOT AND SWAP1 DUP4 ISZERO ISZERO MUL OR SWAP1 SSTORE POP PUSH1 0x60 DUP3 ADD MLOAD DUP2 PUSH1 0x0 ADD PUSH1 0x3 PUSH2 0x100 EXP DUP2 SLOAD DUP2 PUSH1 0xFF MUL NOT AND SWAP1 DUP4 ISZERO ISZERO MUL OR SWAP1 SSTORE POP PUSH1 0x80 DUP3 ADD MLOAD DUP2 PUSH1 0x0 ADD PUSH1 0x4 PUSH2 0x100 EXP DUP2 SLOAD DUP2 PUSH1 0xFF MUL NOT AND SWAP1 DUP4 ISZERO ISZERO MUL OR SWAP1 SSTORE POP SWAP1 POP POP PUSH1 0x1 PUSH1 0x2 DUP9 PUSH1 0x40 MLOAD PUSH2 0x131F SWAP2 SWAP1 PUSH2 0x2822 JUMP JUMPDEST SWAP1 DUP2 MSTORE PUSH1 0x20 ADD PUSH1 0x40 MLOAD DUP1 SWAP2 SUB SWAP1 KECCAK256 PUSH1 0x0 PUSH2 0x100 EXP DUP2 SLOAD DUP2 PUSH1 0xFF MUL NOT AND SWAP1 DUP4 ISZERO ISZERO MUL OR SWAP1 SSTORE POP DUP7 PUSH1 0x1 PUSH1 0x0 CALLER PUSH20 0xFFFFFFFFFFFFFFFFFFFFFFFFFFFFFFFFFFFFFFFF AND PUSH20 0xFFFFFFFFFFFFFFFFFFFFFFFFFFFFFFFFFFFFFFFF AND DUP2 MSTORE PUSH1 0x20 ADD SWAP1 DUP2 MSTORE PUSH1 0x20 ADD PUSH1 0x0 KECCAK256 SWAP1 DUP2 PUSH2 0x1390 SWAP2 SWAP1 PUSH2 0x2A5B JUMP JUMPDEST POP PUSH32 0x673B132BFAB7898651385299BF51A81F5D71D70C785D2C713BCE0B05613B9518 DUP8 CALLER PUSH1 0x40 MLOAD PUSH2 0x13C2 SWAP3 SWAP2 SWAP1 PUSH2 0x2BA8 JUMP JUMPDEST PUSH1 0x40 MLOAD DUP1 SWAP2 SUB SWAP1 LOG1 POP POP POP POP POP POP POP JUMP JUMPDEST PUSH1 0x0 DUP7 PUSH1 0x40 MLOAD PUSH2 0x13E3 SWAP2 SWAP1 PUSH2 0x2822 JUMP JUMPDEST SWAP1 DUP2 MSTORE PUSH1 0x20 ADD PUSH1 0x40 MLOAD DUP1 SWAP2 SUB SWAP1 KECCAK256 PUSH1 0x12 ADD PUSH1 0x0 SWAP1 SLOAD SWAP1 PUSH2 0x100 EXP SWAP1 DIV PUSH1 0xFF AND PUSH2 0x1441 JUMPI PUSH1 0x40 MLOAD PUSH32 0x8C379A000000000000000000000000000000000000000000000000000000000 DUP2 MSTORE PUSH1 0x4 ADD PUSH2 0x1438 SWAP1 PUSH2 0x2885 JUMP JUMPDEST PUSH1 0x40 MLOAD DUP1 SWAP2 SUB SWAP1 REVERT JUMPDEST PUSH1 0x0 DUP1 DUP8 PUSH1 0x40 MLOAD PUSH2 0x1452 SWAP2 SWAP1 PUSH2 0x2822 JUMP JUMPDEST SWAP1 DUP2 MSTORE PUSH1 0x20 ADD PUSH1 0x40 MLOAD DUP1 SWAP2 SUB SWAP1 KECCAK256 SWAP1 POP DUP6 DUP2 PUSH1 0x14 ADD PUSH1 0x0 ADD PUSH1 0x0 PUSH2 0x100 EXP DUP2 SLOAD DUP2 PUSH1 0xFF MUL NOT AND SWAP1 DUP4 ISZERO ISZERO MUL OR SWAP1 SSTORE POP DUP5 DUP2 PUSH1 0x14 ADD PUSH1 0x0 ADD PUSH1 0x1 PUSH2 0x100 EXP DUP2 SLOAD DUP2 PUSH1 0xFF MUL NOT AND SWAP1 DUP4 ISZERO ISZERO MUL OR SWAP1 SSTORE POP DUP4 DUP2 PUSH1 0x14 ADD PUSH1 0x0 ADD PUSH1 0x2 PUSH2 0x100 EXP DUP2 SLOAD DUP2 PUSH1 0xFF MUL NOT AND SWAP1 DUP4 ISZERO ISZERO MUL OR SWAP1 SSTORE POP DUP3 DUP2 PUSH1 0x14 ADD PUSH1 0x0 ADD PUSH1 0x3 PUSH2 0x100 EXP DUP2 SLOAD DUP2 PUSH1 0xFF MUL NOT AND SWAP1 DUP4 ISZERO ISZERO MUL OR SWAP1 SSTORE POP DUP2 DUP2 PUSH1 0x14 ADD PUSH1 0x0 ADD PUSH1 0x4 PUSH2 0x100 EXP DUP2 SLOAD DUP2 PUSH1 0xFF MUL NOT AND SWAP1 DUP4 ISZERO ISZERO MUL OR SWAP1 SSTORE POP PUSH32 0x45F3996280BE4294C13B2EA55A6DA17F17A8845CB547C6112A1EC74C608AD0DC DUP8 DUP3 PUSH1 0x14 ADD PUSH1 0x40 MLOAD PUSH2 0x1531 SWAP3 SWAP2 SWAP1 PUSH2 0x2D2D JUMP JUMPDEST PUSH1 0x40 MLOAD DUP1 SWAP2 SUB SWAP1 LOG1 POP POP POP POP POP POP POP JUMP JUMPDEST PUSH1 0x0 DUP6 PUSH1 0x40 MLOAD PUSH2 0x1552 SWAP2 SWAP1 PUSH2 0x2822 JUMP JUMPDEST SWAP1 DUP2 MSTORE PUSH1 0x20 ADD PUSH1 0x40 MLOAD DUP1 SWAP2 SUB SWAP1 KECCAK256 PUSH1 0x12 ADD PUSH1 0x0 SWAP1 SLOAD SWAP1 PUSH2 0x100 EXP SWAP1 DIV PUSH1 0xFF AND PUSH2 0x15B0 JUMPI PUSH1 0x40 MLOAD PUSH32 0x8C379A000000000000000000000000000000000000000000000000000000000 DUP2 MSTORE PUSH1 0x4 ADD PUSH2 0x15A7 SWAP1 PUSH2 0x2885 JUMP JUMPDEST PUSH1 0x40 MLOAD DUP1 SWAP2 SUB SWAP1 REVERT JUMPDEST PUSH1 0x0 DUP1 DUP7 PUSH1 0x40 MLOAD PUSH2 0x15C1 SWAP2 SWAP1 PUSH2 0x2822 JUMP JUMPDEST SWAP1 DUP2 MSTORE PUSH1 0x20 ADD PUSH1 0x40 MLOAD DUP1 SWAP2 SUB SWAP1 KECCAK256 SWAP1 POP DUP5 PUSH1 0x0 ADD MLOAD DUP2 PUSH1 0x0 ADD SWAP1 DUP2 PUSH2 0x15E6 SWAP2 SWAP1 PUSH2 0x2A5B JUMP JUMPDEST POP DUP5 PUSH1 0x20 ADD MLOAD DUP2 PUSH1 0x1 ADD SWAP1 DUP2 PUSH2 0x15FC SWAP2 SWAP1 PUSH2 0x2A5B JUMP JUMPDEST POP DUP5 PUSH1 0x40 ADD MLOAD DUP2 PUSH1 0x3 ADD SWAP1 DUP2 PUSH2 0x1612 SWAP2 SWAP1 PUSH2 0x2A5B JUMP JUMPDEST POP DUP5 PUSH1 0x60 ADD MLOAD DUP2 PUSH1 0x4 ADD SWAP1 DUP2 PUSH2 0x1628 SWAP2 SWAP1 PUSH2 0x2A5B JUMP JUMPDEST POP DUP5 PUSH1 0x80 ADD MLOAD DUP2 PUSH1 0x5 ADD SWAP1 DUP2 PUSH2 0x163E SWAP2 SWAP1 PUSH2 0x2A5B JUMP JUMPDEST POP DUP5 PUSH1 0xA0 ADD MLOAD DUP2 PUSH1 0x8 ADD SWAP1 DUP2 PUSH2 0x1654 SWAP2 SWAP1 PUSH2 0x2A5B JUMP JUMPDEST POP DUP4 PUSH1 0x0 ADD MLOAD DUP2 PUSH1 0x6 ADD SWAP1 DUP2 PUSH2 0x166A SWAP2 SWAP1 PUSH2 0x2A5B JUMP JUMPDEST POP DUP4 PUSH1 0x20 ADD MLOAD DUP2 PUSH1 0x7 ADD SWAP1 DUP2 PUSH2 0x1680 SWAP2 SWAP1 PUSH2 0x2A5B JUMP JUMPDEST POP DUP4 PUSH1 0x40 ADD MLOAD DUP2 PUSH1 0x9 ADD SWAP1 DUP2 PUSH2 0x1696 SWAP2 SWAP1 PUSH2 0x2A5B JUMP JUMPDEST POP DUP3 PUSH1 0x0 ADD MLOAD DUP2 PUSH1 0xA ADD SWAP1 DUP2 PUSH2 0x16AC SWAP2 SWAP1 PUSH2 0x2A5B JUMP JUMPDEST POP DUP3 PUSH1 0x20 ADD MLOAD DUP2 PUSH1 0xB ADD SWAP1 DUP2 PUSH2 0x16C2 SWAP2 SWAP1 PUSH2 0x2A5B JUMP JUMPDEST POP DUP3 PUSH1 0x40 ADD MLOAD DUP2 PUSH1 0xC ADD SWAP1 DUP2 PUSH2 0x16D8 SWAP2 SWAP1 PUSH2 0x2A5B JUMP JUMPDEST POP DUP3 PUSH1 0x60 ADD MLOAD DUP2 PUSH1 0xD ADD SWAP1 DUP2 PUSH2 0x16EE SWAP2 SWAP1 PUSH2 0x2A5B JUMP JUMPDEST POP DUP3 PUSH1 0x80 ADD MLOAD DUP2 PUSH1 0xE ADD SWAP1 DUP2 PUSH2 0x1704 SWAP2 SWAP1 PUSH2 0x2A5B JUMP JUMPDEST POP DUP4 PUSH1 0x60 ADD MLOAD DUP2 PUSH1 0xF ADD SWAP1 DUP2 PUSH2 0x171A SWAP2 SWAP1 PUSH2 0x2A5B JUMP JUMPDEST POP DUP4 PUSH1 0x80 ADD MLOAD DUP2 PUSH1 0x10 ADD SWAP1 DUP1 MLOAD SWAP1 PUSH1 0x20 ADD SWAP1 PUSH2 0x1737 SWAP3 SWAP2 SWAP1 PUSH2 0x1909 JUMP JUMPDEST POP DUP4 PUSH1 0xA0 ADD MLOAD DUP2 PUSH1 0x11 ADD SWAP1 DUP2 PUSH2 0x174D SWAP2 SWAP1 PUSH2 0x2A5B JUMP JUMPDEST POP DUP2 DUP2 PUSH1 0x14 ADD PUSH1 0x0 DUP3 ADD MLOAD DUP2 PUSH1 0x0 ADD PUSH1 0x0 PUSH2 0x100 EXP DUP2 SLOAD DUP2 PUSH1 0xFF MUL NOT AND SWAP1 DUP4 ISZERO ISZERO MUL OR SWAP1 SSTORE POP PUSH1 0x20 DUP3 ADD MLOAD DUP2 PUSH1 0x0 ADD PUSH1 0x1 PUSH2 0x100 EXP DUP2 SLOAD DUP2 PUSH1 0xFF MUL NOT AND SWAP1 DUP4 ISZERO ISZERO MUL OR SWAP1 SSTORE POP PUSH1 0x40 DUP3 ADD MLOAD DUP2 PUSH1 0x0 ADD PUSH1 0x2 PUSH2 0x100 EXP DUP2 SLOAD DUP2 PUSH1 0xFF MUL NOT AND SWAP1 DUP4 ISZERO ISZERO MUL OR SWAP1 SSTORE POP PUSH1 0x60 DUP3 ADD MLOAD DUP2 PUSH1 0x0 ADD PUSH1 0x3 PUSH2 0x100 EXP DUP2 SLOAD DUP2 PUSH1 0xFF MUL NOT AND SWAP1 DUP4 ISZERO ISZERO MUL OR SWAP1 SSTORE POP PUSH1 0x80 DUP3 ADD MLOAD DUP2 PUSH1 0x0 ADD PUSH1 0x4 PUSH2 0x100 EXP DUP2 SLOAD DUP2 PUSH1 0xFF MUL NOT AND SWAP1 DUP4 ISZERO ISZERO MUL OR SWAP1 SSTORE POP SWAP1 POP POP PUSH32 0x19149B23963298870F5230F486F4C6F30AE5BAA1C8D814E0984A9EC3A820DE53 DUP7 PUSH1 0x40 MLOAD PUSH2 0x1825 SWAP2 SWAP1 PUSH2 0x1A73 JUMP JUMPDEST PUSH1 0x40 MLOAD DUP1 SWAP2 SUB SWAP1 LOG1 POP POP POP POP POP POP JUMP JUMPDEST PUSH1 0x40 MLOAD DUP1 PUSH1 0xA0 ADD PUSH1 0x40 MSTORE DUP1 PUSH1 0x0 ISZERO ISZERO DUP2 MSTORE PUSH1 0x20 ADD PUSH1 0x0 ISZERO ISZERO DUP2 MSTORE PUSH1 0x20 ADD PUSH1 0x0 ISZERO ISZERO DUP2 MSTORE PUSH1 0x20 ADD PUSH1 0x0 ISZERO ISZERO DUP2 MSTORE PUSH1 0x20 ADD PUSH1 0x0 ISZERO ISZERO DUP2 MSTORE POP SWAP1 JUMP JUMPDEST PUSH1 0x40 MLOAD DUP1 PUSH1 0xC0 ADD PUSH1 0x40 MSTORE DUP1 PUSH1 0x60 DUP2 MSTORE PUSH1 0x20 ADD PUSH1 0x60 DUP2 MSTORE PUSH1 0x20 ADD PUSH1 0x60 DUP2 MSTORE PUSH1 0x20 ADD PUSH1 0x60 DUP2 MSTORE PUSH1 0x20 ADD PUSH1 0x60 DUP2 MSTORE PUSH1 0x20 ADD PUSH1 0x60 DUP2 MSTORE POP SWAP1 JUMP JUMPDEST PUSH1 0x40 MLOAD DUP1 PUSH1 0xC0 ADD PUSH1 0x40 MSTORE DUP1 PUSH1 0x60 DUP2 MSTORE PUSH1 0x20 ADD PUSH1 0x60 DUP2 MSTORE PUSH1 0x20 ADD PUSH1 0x60 DUP2 MSTORE PUSH1 0x20 ADD PUSH1 0x60 DUP2 MSTORE PUSH1 0x20 ADD PUSH1 0x60 DUP2 MSTORE PUSH1 0x20 ADD PUSH1 0x60 DUP2 MSTORE POP SWAP1 JUMP JUMPDEST PUSH1 0x40 MLOAD DUP1 PUSH1 0xA0 ADD PUSH1 0x40 MSTORE DUP1 PUSH1 0x60 DUP2 MSTORE PUSH1 0x20 ADD PUSH1 0x60 DUP2 MSTORE PUSH1 0x20 ADD PUSH1 0x60 DUP2 MSTORE PUSH1 0x20 ADD PUSH1 0x60 DUP2 MSTORE PUSH1 0x20 ADD PUSH1 0x60 DUP2 MSTORE POP SWAP1 JUMP JUMPDEST DUP3 DUP1 SLOAD DUP3 DUP3 SSTORE SWAP1 PUSH1 0x0 MSTORE PUSH1 0x20 PUSH1 0x0 KECCAK256 SWAP1 DUP2 ADD SWAP3 DUP3 ISZERO PUSH2 0x1951 JUMPI SWAP2 PUSH1 0x20 MUL DUP3 ADD JUMPDEST DUP3 DUP2 GT ISZERO PUSH2 0x1950 JUMPI DUP3 MLOAD DUP3 SWAP1 DUP2 PUSH2 0x1940 SWAP2 SWAP1 PUSH2 0x2A5B JUMP JUMPDEST POP SWAP2 PUSH1 0x20 ADD SWAP2 SWAP1 PUSH1 0x1 ADD SWAP1 PUSH2 0x1929 JUMP JUMPDEST JUMPDEST POP SWAP1 POP PUSH2 0x195E SWAP2 SWAP1 PUSH2 0x1962 JUMP JUMPDEST POP SWAP1 JUMP JUMPDEST JUMPDEST DUP1 DUP3 GT ISZERO PUSH2 0x1982 JUMPI PUSH1 0x0 DUP2 DUP2 PUSH2 0x1979 SWAP2 SWAP1 PUSH2 0x1986 JUMP JUMPDEST POP PUSH1 0x1 ADD PUSH2 0x1963 JUMP JUMPDEST POP SWAP1 JUMP JUMPDEST POP DUP1 SLOAD PUSH2 0x1992 SWAP1 PUSH2 0x27B5 JUMP JUMPDEST PUSH1 0x0 DUP3 SSTORE DUP1 PUSH1 0x1F LT PUSH2 0x19A4 JUMPI POP PUSH2 0x19C3 JUMP JUMPDEST PUSH1 0x1F ADD PUSH1 0x20 SWAP1 DIV SWAP1 PUSH1 0x0 MSTORE PUSH1 0x20 PUSH1 0x0 KECCAK256 SWAP1 DUP2 ADD SWAP1 PUSH2 0x19C2 SWAP2 SWAP1 PUSH2 0x19C6 JUMP JUMPDEST JUMPDEST POP JUMP JUMPDEST JUMPDEST DUP1 DUP3 GT ISZERO PUSH2 0x19DF JUMPI PUSH1 0x0 DUP2 PUSH1 0x0 SWAP1 SSTORE POP PUSH1 0x1 ADD PUSH2 0x19C7 JUMP JUMPDEST POP SWAP1 JUMP JUMPDEST PUSH1 0x0 DUP2 MLOAD SWAP1 POP SWAP2 SWAP1 POP JUMP JUMPDEST PUSH1 0x0 DUP3 DUP3 MSTORE PUSH1 0x20 DUP3 ADD SWAP1 POP SWAP3 SWAP2 POP POP JUMP JUMPDEST PUSH1 0x0 JUMPDEST DUP4 DUP2 LT ISZERO PUSH2 0x1A1D JUMPI DUP1 DUP3 ADD MLOAD DUP2 DUP5 ADD MSTORE PUSH1 0x20 DUP2 ADD SWAP1 POP PUSH2 0x1A02 JUMP JUMPDEST PUSH1 0x0 DUP5 DUP5 ADD MSTORE POP POP POP POP JUMP JUMPDEST PUSH1 0x0 PUSH1 0x1F NOT PUSH1 0x1F DUP4 ADD AND SWAP1 POP SWAP2 SWAP1 POP JUMP JUMPDEST PUSH1 0x0 PUSH2 0x1A45 DUP3 PUSH2 0x19E3 JUMP JUMPDEST PUSH2 0x1A4F DUP2 DUP6 PUSH2 0x19EE JUMP JUMPDEST SWAP4 POP PUSH2 0x1A5F DUP2 DUP6 PUSH1 0x20 DUP7 ADD PUSH2 0x19FF JUMP JUMPDEST PUSH2 0x1A68 DUP2 PUSH2 0x1A29 JUMP JUMPDEST DUP5 ADD SWAP2 POP POP SWAP3 SWAP2 POP POP JUMP JUMPDEST PUSH1 0x0 PUSH1 0x20 DUP3 ADD SWAP1 POP DUP2 DUP2 SUB PUSH1 0x0 DUP4 ADD MSTORE PUSH2 0x1A8D DUP2 DUP5 PUSH2 0x1A3A JUMP JUMPDEST SWAP1 POP SWAP3 SWAP2 POP POP JUMP JUMPDEST PUSH1 0x0 PUSH1 0x40 MLOAD SWAP1 POP SWAP1 JUMP JUMPDEST PUSH1 0x0 DUP1 REVERT JUMPDEST PUSH1 0x0 DUP1 REVERT JUMPDEST PUSH1 0x0 DUP1 REVERT JUMPDEST PUSH1 0x0 DUP1 REVERT JUMPDEST PUSH32 0x4E487B7100000000000000000000000000000000000000000000000000000000 PUSH1 0x0 MSTORE PUSH1 0x41 PUSH1 0x4 MSTORE PUSH1 0x24 PUSH1 0x0 REVERT JUMPDEST PUSH2 0x1AEB DUP3 PUSH2 0x1A29 JUMP JUMPDEST DUP2 ADD DUP2 DUP2 LT PUSH8 0xFFFFFFFFFFFFFFFF DUP3 GT OR ISZERO PUSH2 0x1B0A JUMPI PUSH2 0x1B09 PUSH2 0x1AB3 JUMP JUMPDEST JUMPDEST DUP1 PUSH1 0x40 MSTORE POP POP POP JUMP JUMPDEST PUSH1 0x0 PUSH2 0x1B1D PUSH2 0x1A95 JUMP JUMPDEST SWAP1 POP PUSH2 0x1B29 DUP3 DUP3 PUSH2 0x1AE2 JUMP JUMPDEST SWAP2 SWAP1 POP JUMP JUMPDEST PUSH1 0x0 PUSH8 0xFFFFFFFFFFFFFFFF DUP3 GT ISZERO PUSH2 0x1B49 JUMPI PUSH2 0x1B48 PUSH2 0x1AB3 JUMP JUMPDEST JUMPDEST PUSH2 0x1B52 DUP3 PUSH2 0x1A29 JUMP JUMPDEST SWAP1 POP PUSH1 0x20 DUP2 ADD SWAP1 POP SWAP2 SWAP1 POP JUMP JUMPDEST DUP3 DUP2 DUP4 CALLDATACOPY PUSH1 0x0 DUP4 DUP4 ADD MSTORE POP POP POP JUMP JUMPDEST PUSH1 0x0 PUSH2 0x1B81 PUSH2 0x1B7C DUP5 PUSH2 0x1B2E JUMP JUMPDEST PUSH2 0x1B13 JUMP JUMPDEST SWAP1 POP DUP3 DUP2 MSTORE PUSH1 0x20 DUP2 ADD DUP5 DUP5 DUP5 ADD GT ISZERO PUSH2 0x1B9D JUMPI PUSH2 0x1B9C PUSH2 0x1AAE JUMP JUMPDEST JUMPDEST PUSH2 0x1BA8 DUP5 DUP3 DUP6 PUSH2 0x1B5F JUMP JUMPDEST POP SWAP4 SWAP3 POP POP POP JUMP JUMPDEST PUSH1 0x0 DUP3 PUSH1 0x1F DUP4 ADD SLT PUSH2 0x1BC5 JUMPI PUSH2 0x1BC4 PUSH2 0x1AA9 JUMP JUMPDEST JUMPDEST DUP2 CALLDATALOAD PUSH2 0x1BD5 DUP5 DUP3 PUSH1 0x20 DUP7 ADD PUSH2 0x1B6E JUMP JUMPDEST SWAP2 POP POP SWAP3 SWAP2 POP POP JUMP JUMPDEST PUSH1 0x0 PUSH1 0x20 DUP3 DUP5 SUB SLT ISZERO PUSH2 0x1BF4 JUMPI PUSH2 0x1BF3 PUSH2 0x1A9F JUMP JUMPDEST JUMPDEST PUSH1 0x0 DUP3 ADD CALLDATALOAD PUSH8 0xFFFFFFFFFFFFFFFF DUP2 GT ISZERO PUSH2 0x1C12 JUMPI PUSH2 0x1C11 PUSH2 0x1AA4 JUMP JUMPDEST JUMPDEST PUSH2 0x1C1E DUP5 DUP3 DUP6 ADD PUSH2 0x1BB0 JUMP JUMPDEST SWAP2 POP POP SWAP3 SWAP2 POP POP JUMP JUMPDEST PUSH1 0x0 DUP2 ISZERO ISZERO SWAP1 POP SWAP2 SWAP1 POP JUMP JUMPDEST PUSH2 0x1C3C DUP2 PUSH2 0x1C27 JUMP JUMPDEST DUP3 MSTORE POP POP JUMP JUMPDEST PUSH1 0xA0 DUP3 ADD PUSH1 0x0 DUP3 ADD MLOAD PUSH2 0x1C58 PUSH1 0x0 DUP6 ADD DUP3 PUSH2 0x1C33 JUMP JUMPDEST POP PUSH1 0x20 DUP3 ADD MLOAD PUSH2 0x1C6B PUSH1 0x20 DUP6 ADD DUP3 PUSH2 0x1C33 JUMP JUMPDEST POP PUSH1 0x40 DUP3 ADD MLOAD PUSH2 0x1C7E PUSH1 0x40 DUP6 ADD DUP3 PUSH2 0x1C33 JUMP JUMPDEST POP PUSH1 0x60 DUP3 ADD MLOAD PUSH2 0x1C91 PUSH1 0x60 DUP6 ADD DUP3 PUSH2 0x1C33 JUMP JUMPDEST POP PUSH1 0x80 DUP3 ADD MLOAD PUSH2 0x1CA4 PUSH1 0x80 DUP6 ADD DUP3 PUSH2 0x1C33 JUMP JUMPDEST POP POP POP POP JUMP JUMPDEST PUSH1 0x0 PUSH1 0xA0 DUP3 ADD SWAP1 POP PUSH2 0x1CBF PUSH1 0x0 DUP4 ADD DUP5 PUSH2 0x1C42 JUMP JUMPDEST SWAP3 SWAP2 POP POP JUMP JUMPDEST PUSH1 0x0 PUSH20 0xFFFFFFFFFFFFFFFFFFFFFFFFFFFFFFFFFFFFFFFF DUP3 AND SWAP1 POP SWAP2 SWAP1 POP JUMP JUMPDEST PUSH1 0x0 PUSH2 0x1CF0 DUP3 PUSH2 0x1CC5 JUMP JUMPDEST SWAP1 POP SWAP2 SWAP1 POP JUMP JUMPDEST PUSH2 0x1D00 DUP2 PUSH2 0x1CE5 JUMP JUMPDEST DUP2 EQ PUSH2 0x1D0B JUMPI PUSH1 0x0 DUP1 REVERT JUMPDEST POP JUMP JUMPDEST PUSH1 0x0 DUP2 CALLDATALOAD SWAP1 POP PUSH2 0x1D1D DUP2 PUSH2 0x1CF7 JUMP JUMPDEST SWAP3 SWAP2 POP POP JUMP JUMPDEST PUSH1 0x0 PUSH1 0x20 DUP3 DUP5 SUB SLT ISZERO PUSH2 0x1D39 JUMPI PUSH2 0x1D38 PUSH2 0x1A9F JUMP JUMPDEST JUMPDEST PUSH1 0x0 PUSH2 0x1D47 DUP5 DUP3 DUP6 ADD PUSH2 0x1D0E JUMP JUMPDEST SWAP2 POP POP SWAP3 SWAP2 POP POP JUMP JUMPDEST PUSH1 0x0 DUP3 DUP3 MSTORE PUSH1 0x20 DUP3 ADD SWAP1 POP SWAP3 SWAP2 POP POP JUMP JUMPDEST PUSH1 0x0 PUSH2 0x1D6C DUP3 PUSH2 0x19E3 JUMP JUMPDEST PUSH2 0x1D76 DUP2 DUP6 PUSH2 0x1D50 JUMP JUMPDEST SWAP4 POP PUSH2 0x1D86 DUP2 DUP6 PUSH1 0x20 DUP7 ADD PUSH2 0x19FF JUMP JUMPDEST PUSH2 0x1D8F DUP2 PUSH2 0x1A29 JUMP JUMPDEST DUP5 ADD SWAP2 POP POP SWAP3 SWAP2 POP POP JUMP JUMPDEST PUSH1 0x0 PUSH1 0xC0 DUP4 ADD PUSH1 0x0 DUP4 ADD MLOAD DUP5 DUP3 SUB PUSH1 0x0 DUP7 ADD MSTORE PUSH2 0x1DB7 DUP3 DUP3 PUSH2 0x1D61 JUMP JUMPDEST SWAP2 POP POP PUSH1 0x20 DUP4 ADD MLOAD DUP5 DUP3 SUB PUSH1 0x20 DUP7 ADD MSTORE PUSH2 0x1DD1 DUP3 DUP3 PUSH2 0x1D61 JUMP JUMPDEST SWAP2 POP POP PUSH1 0x40 DUP4 ADD MLOAD DUP5 DUP3 SUB PUSH1 0x40 DUP7 ADD MSTORE PUSH2 0x1DEB DUP3 DUP3 PUSH2 0x1D61 JUMP JUMPDEST SWAP2 POP POP PUSH1 0x60 DUP4 ADD MLOAD DUP5 DUP3 SUB PUSH1 0x60 DUP7 ADD MSTORE PUSH2 0x1E05 DUP3 DUP3 PUSH2 0x1D61 JUMP JUMPDEST SWAP2 POP POP PUSH1 0x80 DUP4 ADD MLOAD DUP5 DUP3 SUB PUSH1 0x80 DUP7 ADD MSTORE PUSH2 0x1E1F DUP3 DUP3 PUSH2 0x1D61 JUMP JUMPDEST SWAP2 POP POP PUSH1 0xA0 DUP4 ADD MLOAD DUP5 DUP3 SUB PUSH1 0xA0 DUP7 ADD MSTORE PUSH2 0x1E39 DUP3 DUP3 PUSH2 0x1D61 JUMP JUMPDEST SWAP2 POP POP DUP1 SWAP2 POP POP SWAP3 SWAP2 POP POP JUMP JUMPDEST PUSH1 0x0 DUP2 MLOAD SWAP1 POP SWAP2 SWAP1 POP JUMP JUMPDEST PUSH1 0x0 DUP3 DUP3 MSTORE PUSH1 0x20 DUP3 ADD SWAP1 POP SWAP3 SWAP2 POP POP JUMP JUMPDEST PUSH1 0x0 DUP2 SWAP1 POP PUSH1 0x20 DUP3 ADD SWAP1 POP SWAP2 SWAP1 POP JUMP JUMPDEST PUSH1 0x0 PUSH2 0x1E7E DUP4 DUP4 PUSH2 0x1D61 JUMP JUMPDEST SWAP1 POP SWAP3 SWAP2 POP POP JUMP JUMPDEST PUSH1 0x0 PUSH1 0x20 DUP3 ADD SWAP1 POP SWAP2 SWAP1 POP JUMP JUMPDEST PUSH1 0x0 PUSH2 0x1E9E DUP3 PUSH2 0x1E46 JUMP JUMPDEST PUSH2 0x1EA8 DUP2 DUP6 PUSH2 0x1E51 JUMP JUMPDEST SWAP4 POP DUP4 PUSH1 0x20 DUP3 MUL DUP6 ADD PUSH2 0x1EBA DUP6 PUSH2 0x1E62 JUMP JUMPDEST DUP1 PUSH1 0x0 JUMPDEST DUP6 DUP2 LT ISZERO PUSH2 0x1EF6 JUMPI DUP5 DUP5 SUB DUP10 MSTORE DUP2 MLOAD PUSH2 0x1ED7 DUP6 DUP3 PUSH2 0x1E72 JUMP JUMPDEST SWAP5 POP PUSH2 0x1EE2 DUP4 PUSH2 0x1E86 JUMP JUMPDEST SWAP3 POP PUSH1 0x20 DUP11 ADD SWAP10 POP POP PUSH1 0x1 DUP2 ADD SWAP1 POP PUSH2 0x1EBE JUMP JUMPDEST POP DUP3 SWAP8 POP DUP8 SWAP6 POP POP POP POP POP POP SWAP3 SWAP2 POP POP JUMP JUMPDEST PUSH1 0x0 PUSH1 0xC0 DUP4 ADD PUSH1 0x0 DUP4 ADD MLOAD DUP5 DUP3 SUB PUSH1 0x0 DUP7 ADD MSTORE PUSH2 0x1F25 DUP3 DUP3 PUSH2 0x1D61 JUMP JUMPDEST SWAP2 POP POP PUSH1 0x20 DUP4 ADD MLOAD DUP5 DUP3 SUB PUSH1 0x20 DUP7 ADD MSTORE PUSH2 0x1F3F DUP3 DUP3 PUSH2 0x1D61 JUMP JUMPDEST SWAP2 POP POP PUSH1 0x40 DUP4 ADD MLOAD DUP5 DUP3 SUB PUSH1 0x40 DUP7 ADD MSTORE PUSH2 0x1F59 DUP3 DUP3 PUSH2 0x1D61 JUMP JUMPDEST SWAP2 POP POP PUSH1 0x60 DUP4 ADD MLOAD DUP5 DUP3 SUB PUSH1 0x60 DUP7 ADD MSTORE PUSH2 0x1F73 DUP3 DUP3 PUSH2 0x1D61 JUMP JUMPDEST SWAP2 POP POP PUSH1 0x80 DUP4 ADD MLOAD DUP5 DUP3 SUB PUSH1 0x80 DUP7 ADD MSTORE PUSH2 0x1F8D DUP3 DUP3 PUSH2 0x1E93 JUMP JUMPDEST SWAP2 POP POP PUSH1 0xA0 DUP4 ADD MLOAD DUP5 DUP3 SUB PUSH1 0xA0 DUP7 ADD MSTORE PUSH2 0x1FA7 DUP3 DUP3 PUSH2 0x1D61 JUMP JUMPDEST SWAP2 POP POP DUP1 SWAP2 POP POP SWAP3 SWAP2 POP POP JUMP JUMPDEST PUSH1 0x0 PUSH1 0xA0 DUP4 ADD PUSH1 0x0 DUP4 ADD MLOAD DUP5 DUP3 SUB PUSH1 0x0 DUP7 ADD MSTORE PUSH2 0x1FD1 DUP3 DUP3 PUSH2 0x1D61 JUMP JUMPDEST SWAP2 POP POP PUSH1 0x20 DUP4 ADD MLOAD DUP5 DUP3 SUB PUSH1 0x20 DUP7 ADD MSTORE PUSH2 0x1FEB DUP3 DUP3 PUSH2 0x1D61 JUMP JUMPDEST SWAP2 POP POP PUSH1 0x40 DUP4 ADD MLOAD DUP5 DUP3 SUB PUSH1 0x40 DUP7 ADD MSTORE PUSH2 0x2005 DUP3 DUP3 PUSH2 0x1D61 JUMP JUMPDEST SWAP2 POP POP PUSH1 0x60 DUP4 ADD MLOAD DUP5 DUP3 SUB PUSH1 0x60 DUP7 ADD MSTORE PUSH2 0x201F DUP3 DUP3 PUSH2 0x1D61 JUMP JUMPDEST SWAP2 POP POP PUSH1 0x80 DUP4 ADD MLOAD DUP5 DUP3 SUB PUSH1 0x80 DUP7 ADD MSTORE PUSH2 0x2039 DUP3 DUP3 PUSH2 0x1D61 JUMP JUMPDEST SWAP2 POP POP DUP1 SWAP2 POP POP SWAP3 SWAP2 POP POP JUMP JUMPDEST PUSH1 0x0 PUSH2 0x100 DUP3 ADD SWAP1 POP DUP2 DUP2 SUB PUSH1 0x0 DUP4 ADD MSTORE PUSH2 0x2061 DUP2 DUP8 PUSH2 0x1D9A JUMP JUMPDEST SWAP1 POP DUP2 DUP2 SUB PUSH1 0x20 DUP4 ADD MSTORE PUSH2 0x2075 DUP2 DUP7 PUSH2 0x1F08 JUMP JUMPDEST SWAP1 POP DUP2 DUP2 SUB PUSH1 0x40 DUP4 ADD MSTORE PUSH2 0x2089 DUP2 DUP6 PUSH2 0x1FB4 JUMP JUMPDEST SWAP1 POP PUSH2 0x2098 PUSH1 0x60 DUP4 ADD DUP5 PUSH2 0x1C42 JUMP JUMPDEST SWAP6 SWAP5 POP POP POP POP POP JUMP JUMPDEST PUSH1 0x0 DUP1 REVERT JUMPDEST PUSH1 0x0 DUP1 REVERT JUMPDEST PUSH1 0x0 PUSH1 0xC0 DUP3 DUP5 SUB SLT ISZERO PUSH2 0x20C1 JUMPI PUSH2 0x20C0 PUSH2 0x20A1 JUMP JUMPDEST JUMPDEST PUSH2 0x20CB PUSH1 0xC0 PUSH2 0x1B13 JUMP JUMPDEST SWAP1 POP PUSH1 0x0 DUP3 ADD CALLDATALOAD PUSH8 0xFFFFFFFFFFFFFFFF DUP2 GT ISZERO PUSH2 0x20EB JUMPI PUSH2 0x20EA PUSH2 0x20A6 JUMP JUMPDEST JUMPDEST PUSH2 0x20F7 DUP5 DUP3 DUP6 ADD PUSH2 0x1BB0 JUMP JUMPDEST PUSH1 0x0 DUP4 ADD MSTORE POP PUSH1 0x20 DUP3 ADD CALLDATALOAD PUSH8 0xFFFFFFFFFFFFFFFF DUP2 GT ISZERO PUSH2 0x211B JUMPI PUSH2 0x211A PUSH2 0x20A6 JUMP JUMPDEST JUMPDEST PUSH2 0x2127 DUP5 DUP3 DUP6 ADD PUSH2 0x1BB0 JUMP JUMPDEST PUSH1 0x20 DUP4 ADD MSTORE POP PUSH1 0x40 DUP3 ADD CALLDATALOAD PUSH8 0xFFFFFFFFFFFFFFFF DUP2 GT ISZERO PUSH2 0x214B JUMPI PUSH2 0x214A PUSH2 0x20A6 JUMP JUMPDEST JUMPDEST PUSH2 0x2157 DUP5 DUP3 DUP6 ADD PUSH2 0x1BB0 JUMP JUMPDEST PUSH1 0x40 DUP4 ADD MSTORE POP PUSH1 0x60 DUP3 ADD CALLDATALOAD PUSH8 0xFFFFFFFFFFFFFFFF DUP2 GT ISZERO PUSH2 0x217B JUMPI PUSH2 0x217A PUSH2 0x20A6 JUMP JUMPDEST JUMPDEST PUSH2 0x2187 DUP5 DUP3 DUP6 ADD PUSH2 0x1BB0 JUMP JUMPDEST PUSH1 0x60 DUP4 ADD MSTORE POP PUSH1 0x80 DUP3 ADD CALLDATALOAD PUSH8 0xFFFFFFFFFFFFFFFF DUP2 GT ISZERO PUSH2 0x21AB JUMPI PUSH2 0x21AA PUSH2 0x20A6 JUMP JUMPDEST JUMPDEST PUSH2 0x21B7 DUP5 DUP3 DUP6 ADD PUSH2 0x1BB0 JUMP JUMPDEST PUSH1 0x80 DUP4 ADD MSTORE POP PUSH1 0xA0 DUP3 ADD CALLDATALOAD PUSH8 0xFFFFFFFFFFFFFFFF DUP2 GT ISZERO PUSH2 0x21DB JUMPI PUSH2 0x21DA PUSH2 0x20A6 JUMP JUMPDEST JUMPDEST PUSH2 0x21E7 DUP5 DUP3 DUP6 ADD PUSH2 0x1BB0 JUMP JUMPDEST PUSH1 0xA0 DUP4 ADD MSTORE POP SWAP3 SWAP2 POP POP JUMP JUMPDEST PUSH1 0x0 PUSH8 0xFFFFFFFFFFFFFFFF DUP3 GT ISZERO PUSH2 0x220E JUMPI PUSH2 0x220D PUSH2 0x1AB3 JUMP JUMPDEST JUMPDEST PUSH1 0x20 DUP3 MUL SWAP1 POP PUSH1 0x20 DUP2 ADD SWAP1 POP SWAP2 SWAP1 POP JUMP JUMPDEST PUSH1 0x0 DUP1 REVERT JUMPDEST PUSH1 0x0 PUSH2 0x2237 PUSH2 0x2232 DUP5 PUSH2 0x21F3 JUMP JUMPDEST PUSH2 0x1B13 JUMP JUMPDEST SWAP1 POP DUP1 DUP4 DUP3 MSTORE PUSH1 0x20 DUP3 ADD SWAP1 POP PUSH1 0x20 DUP5 MUL DUP4 ADD DUP6 DUP2 GT ISZERO PUSH2 0x225A JUMPI PUSH2 0x2259 PUSH2 0x221F JUMP JUMPDEST JUMPDEST DUP4 JUMPDEST DUP2 DUP2 LT ISZERO PUSH2 0x22A1 JUMPI DUP1 CALLDATALOAD PUSH8 0xFFFFFFFFFFFFFFFF DUP2 GT ISZERO PUSH2 0x227F JUMPI PUSH2 0x227E PUSH2 0x1AA9 JUMP JUMPDEST JUMPDEST DUP1 DUP7 ADD PUSH2 0x228C DUP10 DUP3 PUSH2 0x1BB0 JUMP JUMPDEST DUP6 MSTORE PUSH1 0x20 DUP6 ADD SWAP5 POP POP POP PUSH1 0x20 DUP2 ADD SWAP1 POP PUSH2 0x225C JUMP JUMPDEST POP POP POP SWAP4 SWAP3 POP POP POP JUMP JUMPDEST PUSH1 0x0 DUP3 PUSH1 0x1F DUP4 ADD SLT PUSH2 0x22C0 JUMPI PUSH2 0x22BF PUSH2 0x1AA9 JUMP JUMPDEST JUMPDEST DUP2 CALLDATALOAD PUSH2 0x22D0 DUP5 DUP3 PUSH1 0x20 DUP7 ADD PUSH2 0x2224 JUMP JUMPDEST SWAP2 POP POP SWAP3 SWAP2 POP POP JUMP JUMPDEST PUSH1 0x0 PUSH1 0xC0 DUP3 DUP5 SUB SLT ISZERO PUSH2 0x22EF JUMPI PUSH2 0x22EE PUSH2 0x20A1 JUMP JUMPDEST JUMPDEST PUSH2 0x22F9 PUSH1 0xC0 PUSH2 0x1B13 JUMP JUMPDEST SWAP1 POP PUSH1 0x0 DUP3 ADD CALLDATALOAD PUSH8 0xFFFFFFFFFFFFFFFF DUP2 GT ISZERO PUSH2 0x2319 JUMPI PUSH2 0x2318 PUSH2 0x20A6 JUMP JUMPDEST JUMPDEST PUSH2 0x2325 DUP5 DUP3 DUP6 ADD PUSH2 0x1BB0 JUMP JUMPDEST PUSH1 0x0 DUP4 ADD MSTORE POP PUSH1 0x20 DUP3 ADD CALLDATALOAD PUSH8 0xFFFFFFFFFFFFFFFF DUP2 GT ISZERO PUSH2 0x2349 JUMPI PUSH2 0x2348 PUSH2 0x20A6 JUMP JUMPDEST JUMPDEST PUSH2 0x2355 DUP5 DUP3 DUP6 ADD PUSH2 0x1BB0 JUMP JUMPDEST PUSH1 0x20 DUP4 ADD MSTORE POP PUSH1 0x40 DUP3 ADD CALLDATALOAD PUSH8 0xFFFFFFFFFFFFFFFF DUP2 GT ISZERO PUSH2 0x2379 JUMPI PUSH2 0x2378 PUSH2 0x20A6 JUMP JUMPDEST JUMPDEST PUSH2 0x2385 DUP5 DUP3 DUP6 ADD PUSH2 0x1BB0 JUMP JUMPDEST PUSH1 0x40 DUP4 ADD MSTORE POP PUSH1 0x60 DUP3 ADD CALLDATALOAD PUSH8 0xFFFFFFFFFFFFFFFF DUP2 GT ISZERO PUSH2 0x23A9 JUMPI PUSH2 0x23A8 PUSH2 0x20A6 JUMP JUMPDEST JUMPDEST PUSH2 0x23B5 DUP5 DUP3 DUP6 ADD PUSH2 0x1BB0 JUMP JUMPDEST PUSH1 0x60 DUP4 ADD MSTORE POP PUSH1 0x80 DUP3 ADD CALLDATALOAD PUSH8 0xFFFFFFFFFFFFFFFF DUP2 GT ISZERO PUSH2 0x23D9 JUMPI PUSH2 0x23D8 PUSH2 0x20A6 JUMP JUMPDEST JUMPDEST PUSH2 0x23E5 DUP5 DUP3 DUP6 ADD PUSH2 0x22AB JUMP JUMPDEST PUSH1 0x80 DUP4 ADD MSTORE POP PUSH1 0xA0 DUP3 ADD CALLDATALOAD PUSH8 0xFFFFFFFFFFFFFFFF DUP2 GT ISZERO PUSH2 0x2409 JUMPI PUSH2 0x2408 PUSH2 0x20A6 JUMP JUMPDEST JUMPDEST PUSH2 0x2415 DUP5 DUP3 DUP6 ADD PUSH2 0x1BB0 JUMP JUMPDEST PUSH1 0xA0 DUP4 ADD MSTORE POP SWAP3 SWAP2 POP POP JUMP JUMPDEST PUSH1 0x0 PUSH1 0xA0 DUP3 DUP5 SUB SLT ISZERO PUSH2 0x2437 JUMPI PUSH2 0x2436 PUSH2 0x20A1 JUMP JUMPDEST JUMPDEST PUSH2 0x2441 PUSH1 0xA0 PUSH2 0x1B13 JUMP JUMPDEST SWAP1 POP PUSH1 0x0 DUP3 ADD CALLDATALOAD PUSH8 0xFFFFFFFFFFFFFFFF DUP2 GT ISZERO PUSH2 0x2461 JUMPI PUSH2 0x2460 PUSH2 0x20A6 JUMP JUMPDEST JUMPDEST PUSH2 0x246D DUP5 DUP3 DUP6 ADD PUSH2 0x1BB0 JUMP JUMPDEST PUSH1 0x0 DUP4 ADD MSTORE POP PUSH1 0x20 DUP3 ADD CALLDATALOAD PUSH8 0xFFFFFFFFFFFFFFFF DUP2 GT ISZERO PUSH2 0x2491 JUMPI PUSH2 0x2490 PUSH2 0x20A6 JUMP JUMPDEST JUMPDEST PUSH2 0x249D DUP5 DUP3 DUP6 ADD PUSH2 0x1BB0 JUMP JUMPDEST PUSH1 0x20 DUP4 ADD MSTORE POP PUSH1 0x40 DUP3 ADD CALLDATALOAD PUSH8 0xFFFFFFFFFFFFFFFF DUP2 GT ISZERO PUSH2 0x24C1 JUMPI PUSH2 0x24C0 PUSH2 0x20A6 JUMP JUMPDEST JUMPDEST PUSH2 0x24CD DUP5 DUP3 DUP6 ADD PUSH2 0x1BB0 JUMP JUMPDEST PUSH1 0x40 DUP4 ADD MSTORE POP PUSH1 0x60 DUP3 ADD CALLDATALOAD PUSH8 0xFFFFFFFFFFFFFFFF DUP2 GT ISZERO PUSH2 0x24F1 JUMPI PUSH2 0x24F0 PUSH2 0x20A6 JUMP JUMPDEST JUMPDEST PUSH2 0x24FD DUP5 DUP3 DUP6 ADD PUSH2 0x1BB0 JUMP JUMPDEST PUSH1 0x60 DUP4 ADD MSTORE POP PUSH1 0x80 DUP3 ADD CALLDATALOAD PUSH8 0xFFFFFFFFFFFFFFFF DUP2 GT ISZERO PUSH2 0x2521 JUMPI PUSH2 0x2520 PUSH2 0x20A6 JUMP JUMPDEST JUMPDEST PUSH2 0x252D DUP5 DUP3 DUP6 ADD PUSH2 0x1BB0 JUMP JUMPDEST PUSH1 0x80 DUP4 ADD MSTORE POP SWAP3 SWAP2 POP POP JUMP JUMPDEST PUSH2 0x2542 DUP2 PUSH2 0x1C27 JUMP JUMPDEST DUP2 EQ PUSH2 0x254D JUMPI PUSH1 0x0 DUP1 REVERT JUMPDEST POP JUMP JUMPDEST PUSH1 0x0 DUP2 CALLDATALOAD SWAP1 POP PUSH2 0x255F DUP2 PUSH2 0x2539 JUMP JUMPDEST SWAP3 SWAP2 POP POP JUMP JUMPDEST PUSH1 0x0 PUSH1 0xA0 DUP3 DUP5 SUB SLT ISZERO PUSH2 0x257B JUMPI PUSH2 0x257A PUSH2 0x20A1 JUMP JUMPDEST JUMPDEST PUSH2 0x2585 PUSH1 0xA0 PUSH2 0x1B13 JUMP JUMPDEST SWAP1 POP PUSH1 0x0 PUSH2 0x2595 DUP5 DUP3 DUP6 ADD PUSH2 0x2550 JUMP JUMPDEST PUSH1 0x0 DUP4 ADD MSTORE POP PUSH1 0x20 PUSH2 0x25A9 DUP5 DUP3 DUP6 ADD PUSH2 0x2550 JUMP JUMPDEST PUSH1 0x20 DUP4 ADD MSTORE POP PUSH1 0x40 PUSH2 0x25BD DUP5 DUP3 DUP6 ADD PUSH2 0x2550 JUMP JUMPDEST PUSH1 0x40 DUP4 ADD MSTORE POP PUSH1 0x60 PUSH2 0x25D1 DUP5 DUP3 DUP6 ADD PUSH2 0x2550 JUMP JUMPDEST PUSH1 0x60 DUP4 ADD MSTORE POP PUSH1 0x80 PUSH2 0x25E5 DUP5 DUP3 DUP6 ADD PUSH2 0x2550 JUMP JUMPDEST PUSH1 0x80 DUP4 ADD MSTORE POP SWAP3 SWAP2 POP POP JUMP JUMPDEST PUSH1 0x0 DUP1 PUSH1 0x0 DUP1 PUSH1 0x0 PUSH2 0x120 DUP7 DUP9 SUB SLT ISZERO PUSH2 0x260E JUMPI PUSH2 0x260D PUSH2 0x1A9F JUMP JUMPDEST JUMPDEST PUSH1 0x0 DUP7 ADD CALLDATALOAD PUSH8 0xFFFFFFFFFFFFFFFF DUP2 GT ISZERO PUSH2 0x262C JUMPI PUSH2 0x262B PUSH2 0x1AA4 JUMP JUMPDEST JUMPDEST PUSH2 0x2638 DUP9 DUP3 DUP10 ADD PUSH2 0x1BB0 JUMP JUMPDEST SWAP6 POP POP PUSH1 0x20 DUP7 ADD CALLDATALOAD PUSH8 0xFFFFFFFFFFFFFFFF DUP2 GT ISZERO PUSH2 0x2659 JUMPI PUSH2 0x2658 PUSH2 0x1AA4 JUMP JUMPDEST JUMPDEST PUSH2 0x2665 DUP9 DUP3 DUP10 ADD PUSH2 0x20AB JUMP JUMPDEST SWAP5 POP POP PUSH1 0x40 DUP7 ADD CALLDATALOAD PUSH8 0xFFFFFFFFFFFFFFFF DUP2 GT ISZERO PUSH2 0x2686 JUMPI PUSH2 0x2685 PUSH2 0x1AA4 JUMP JUMPDEST JUMPDEST PUSH2 0x2692 DUP9 DUP3 DUP10 ADD PUSH2 0x22D9 JUMP JUMPDEST SWAP4 POP POP PUSH1 0x60 DUP7 ADD CALLDATALOAD PUSH8 0xFFFFFFFFFFFFFFFF DUP2 GT ISZERO PUSH2 0x26B3 JUMPI PUSH2 0x26B2 PUSH2 0x1AA4 JUMP JUMPDEST JUMPDEST PUSH2 0x26BF DUP9 DUP3 DUP10 ADD PUSH2 0x2421 JUMP JUMPDEST SWAP3 POP POP PUSH1 0x80 PUSH2 0x26D0 DUP9 DUP3 DUP10 ADD PUSH2 0x2565 JUMP JUMPDEST SWAP2 POP POP SWAP3 SWAP6 POP SWAP3 SWAP6 SWAP1 SWAP4 POP JUMP JUMPDEST PUSH1 0x0 DUP1 PUSH1 0x0 DUP1 PUSH1 0x0 DUP1 PUSH1 0xC0 DUP8 DUP10 SUB SLT ISZERO PUSH2 0x26FA JUMPI PUSH2 0x26F9 PUSH2 0x1A9F JUMP JUMPDEST JUMPDEST PUSH1 0x0 DUP8 ADD CALLDATALOAD PUSH8 0xFFFFFFFFFFFFFFFF DUP2 GT ISZERO PUSH2 0x2718 JUMPI PUSH2 0x2717 PUSH2 0x1AA4 JUMP JUMPDEST JUMPDEST PUSH2 0x2724 DUP10 DUP3 DUP11 ADD PUSH2 0x1BB0 JUMP JUMPDEST SWAP7 POP POP PUSH1 0x20 PUSH2 0x2735 DUP10 DUP3 DUP11 ADD PUSH2 0x2550 JUMP JUMPDEST SWAP6 POP POP PUSH1 0x40 PUSH2 0x2746 DUP10 DUP3 DUP11 ADD PUSH2 0x2550 JUMP JUMPDEST SWAP5 POP POP PUSH1 0x60 PUSH2 0x2757 DUP10 DUP3 DUP11 ADD PUSH2 0x2550 JUMP JUMPDEST SWAP4 POP POP PUSH1 0x80 PUSH2 0x2768 DUP10 DUP3 DUP11 ADD PUSH2 0x2550 JUMP JUMPDEST SWAP3 POP POP PUSH1 0xA0 PUSH2 0x2779 DUP10 DUP3 DUP11 ADD PUSH2 0x2550 JUMP JUMPDEST SWAP2 POP POP SWAP3 SWAP6 POP SWAP3 SWAP6 POP SWAP3 SWAP6 JUMP JUMPDEST PUSH32 0x4E487B7100000000000000000000000000000000000000000000000000000000 PUSH1 0x0 MSTORE PUSH1 0x22 PUSH1 0x4 MSTORE PUSH1 0x24 PUSH1 0x0 REVERT JUMPDEST PUSH1 0x0 PUSH1 0x2 DUP3 DIV SWAP1 POP PUSH1 0x1 DUP3 AND DUP1 PUSH2 0x27CD JUMPI PUSH1 0x7F DUP3 AND SWAP2 POP JUMPDEST PUSH1 0x20 DUP3 LT DUP2 SUB PUSH2 0x27E0 JUMPI PUSH2 0x27DF PUSH2 0x2786 JUMP JUMPDEST JUMPDEST POP SWAP2 SWAP1 POP JUMP JUMPDEST PUSH1 0x0 DUP2 SWAP1 POP SWAP3 SWAP2 POP POP JUMP JUMPDEST PUSH1 0x0 PUSH2 0x27FC DUP3 PUSH2 0x19E3 JUMP JUMPDEST PUSH2 0x2806 DUP2 DUP6 PUSH2 0x27E6 JUMP JUMPDEST SWAP4 POP PUSH2 0x2816 DUP2 DUP6 PUSH1 0x20 DUP7 ADD PUSH2 0x19FF JUMP JUMPDEST DUP1 DUP5 ADD SWAP2 POP POP SWAP3 SWAP2 POP POP JUMP JUMPDEST PUSH1 0x0 PUSH2 0x282E DUP3 DUP5 PUSH2 0x27F1 JUMP JUMPDEST SWAP2 POP DUP2 SWAP1 POP SWAP3 SWAP2 POP POP JUMP JUMPDEST PUSH32 0x5573657220646F6573206E6F742065786973742E000000000000000000000000 PUSH1 0x0 DUP3 ADD MSTORE POP JUMP JUMPDEST PUSH1 0x0 PUSH2 0x286F PUSH1 0x14 DUP4 PUSH2 0x19EE JUMP JUMPDEST SWAP2 POP PUSH2 0x287A DUP3 PUSH2 0x2839 JUMP JUMPDEST PUSH1 0x20 DUP3 ADD SWAP1 POP SWAP2 SWAP1 POP JUMP JUMPDEST PUSH1 0x0 PUSH1 0x20 DUP3 ADD SWAP1 POP DUP2 DUP2 SUB PUSH1 0x0 DUP4 ADD MSTORE PUSH2 0x289E DUP2 PUSH2 0x2862 JUMP JUMPDEST SWAP1 POP SWAP2 SWAP1 POP JUMP JUMPDEST PUSH1 0x0 DUP2 SWAP1 POP DUP2 PUSH1 0x0 MSTORE PUSH1 0x20 PUSH1 0x0 KECCAK256 SWAP1 POP SWAP2 SWAP1 POP JUMP JUMPDEST PUSH1 0x0 PUSH1 0x20 PUSH1 0x1F DUP4 ADD DIV SWAP1 POP SWAP2 SWAP1 POP JUMP JUMPDEST PUSH1 0x0 DUP3 DUP3 SHL SWAP1 POP SWAP3 SWAP2 POP POP JUMP JUMPDEST PUSH1 0x0 PUSH1 0x8 DUP4 MUL PUSH2 0x2907 PUSH32 0xFFFFFFFFFFFFFFFFFFFFFFFFFFFFFFFFFFFFFFFFFFFFFFFFFFFFFFFFFFFFFFFF DUP3 PUSH2 0x28CA JUMP JUMPDEST PUSH2 0x2911 DUP7 DUP4 PUSH2 0x28CA JUMP JUMPDEST SWAP6 POP DUP1 NOT DUP5 AND SWAP4 POP DUP1 DUP7 AND DUP5 OR SWAP3 POP POP POP SWAP4 SWAP3 POP POP POP JUMP JUMPDEST PUSH1 0x0 DUP2 SWAP1 POP SWAP2 SWAP1 POP JUMP JUMPDEST PUSH1 0x0 DUP2 SWAP1 POP SWAP2 SWAP1 POP JUMP JUMPDEST PUSH1 0x0 PUSH2 0x2958 PUSH2 0x2953 PUSH2 0x294E DUP5 PUSH2 0x2929 JUMP JUMPDEST PUSH2 0x2933 JUMP JUMPDEST PUSH2 0x2929 JUMP JUMPDEST SWAP1 POP SWAP2 SWAP1 POP JUMP JUMPDEST PUSH1 0x0 DUP2 SWAP1 POP SWAP2 SWAP1 POP JUMP JUMPDEST PUSH2 0x2972 DUP4 PUSH2 0x293D JUMP JUMPDEST PUSH2 0x2986 PUSH2 0x297E DUP3 PUSH2 0x295F JUMP JUMPDEST DUP5 DUP5 SLOAD PUSH2 0x28D7 JUMP JUMPDEST DUP3 SSTORE POP POP POP POP JUMP JUMPDEST PUSH1 0x0 SWAP1 JUMP JUMPDEST PUSH2 0x299B PUSH2 0x298E JUMP JUMPDEST PUSH2 0x29A6 DUP2 DUP5 DUP5 PUSH2 0x2969 JUMP JUMPDEST POP POP POP JUMP JUMPDEST JUMPDEST DUP2 DUP2 LT ISZERO PUSH2 0x29CA JUMPI PUSH2 0x29BF PUSH1 0x0 DUP3 PUSH2 0x2993 JUMP JUMPDEST PUSH1 0x1 DUP2 ADD SWAP1 POP PUSH2 0x29AC JUMP JUMPDEST POP POP JUMP JUMPDEST PUSH1 0x1F DUP3 GT ISZERO PUSH2 0x2A0F JUMPI PUSH2 0x29E0 DUP2 PUSH2 0x28A5 JUMP JUMPDEST PUSH2 0x29E9 DUP5 PUSH2 0x28BA JUMP JUMPDEST DUP2 ADD PUSH1 0x20 DUP6 LT ISZERO PUSH2 0x29F8 JUMPI DUP2 SWAP1 POP JUMPDEST PUSH2 0x2A0C PUSH2 0x2A04 DUP6 PUSH2 0x28BA JUMP JUMPDEST DUP4 ADD DUP3 PUSH2 0x29AB JUMP JUMPDEST POP POP JUMPDEST POP POP POP JUMP JUMPDEST PUSH1 0x0 DUP3 DUP3 SHR SWAP1 POP SWAP3 SWAP2 POP POP JUMP JUMPDEST PUSH1 0x0 PUSH2 0x2A32 PUSH1 0x0 NOT DUP5 PUSH1 0x8 MUL PUSH2 0x2A14 JUMP JUMPDEST NOT DUP1 DUP4 AND SWAP2 POP POP SWAP3 SWAP2 POP POP JUMP JUMPDEST PUSH1 0x0 PUSH2 0x2A4B DUP4 DUP4 PUSH2 0x2A21 JUMP JUMPDEST SWAP2 POP DUP3 PUSH1 0x2 MUL DUP3 OR SWAP1 POP SWAP3 SWAP2 POP POP JUMP JUMPDEST PUSH2 0x2A64 DUP3 PUSH2 0x19E3 JUMP JUMPDEST PUSH8 0xFFFFFFFFFFFFFFFF DUP2 GT ISZERO PUSH2 0x2A7D JUMPI PUSH2 0x2A7C PUSH2 0x1AB3 JUMP JUMPDEST JUMPDEST PUSH2 0x2A87 DUP3 SLOAD PUSH2 0x27B5 JUMP JUMPDEST PUSH2 0x2A92 DUP3 DUP3 DUP6 PUSH2 0x29CE JUMP JUMPDEST PUSH1 0x0 PUSH1 0x20 SWAP1 POP PUSH1 0x1F DUP4 GT PUSH1 0x1 DUP2 EQ PUSH2 0x2AC5 JUMPI PUSH1 0x0 DUP5 ISZERO PUSH2 0x2AB3 JUMPI DUP3 DUP8 ADD MLOAD SWAP1 POP JUMPDEST PUSH2 0x2ABD DUP6 DUP3 PUSH2 0x2A3F JUMP JUMPDEST DUP7 SSTORE POP PUSH2 0x2B25 JUMP JUMPDEST PUSH1 0x1F NOT DUP5 AND PUSH2 0x2AD3 DUP7 PUSH2 0x28A5 JUMP JUMPDEST PUSH1 0x0 JUMPDEST DUP3 DUP2 LT ISZERO PUSH2 0x2AFB JUMPI DUP5 DUP10 ADD MLOAD DUP3 SSTORE PUSH1 0x1 DUP3 ADD SWAP2 POP PUSH1 0x20 DUP6 ADD SWAP5 POP PUSH1 0x20 DUP2 ADD SWAP1 POP PUSH2 0x2AD6 JUMP JUMPDEST DUP7 DUP4 LT ISZERO PUSH2 0x2B18 JUMPI DUP5 DUP10 ADD MLOAD PUSH2 0x2B14 PUSH1 0x1F DUP10 AND DUP3 PUSH2 0x2A21 JUMP JUMPDEST DUP4 SSTORE POP JUMPDEST PUSH1 0x1 PUSH1 0x2 DUP9 MUL ADD DUP9 SSTORE POP POP POP JUMPDEST POP POP POP POP POP POP JUMP JUMPDEST PUSH32 0x557365726E616D6520616C7265616479206578697374732E0000000000000000 PUSH1 0x0 DUP3 ADD MSTORE POP JUMP JUMPDEST PUSH1 0x0 PUSH2 0x2B63 PUSH1 0x18 DUP4 PUSH2 0x19EE JUMP JUMPDEST SWAP2 POP PUSH2 0x2B6E DUP3 PUSH2 0x2B2D JUMP JUMPDEST PUSH1 0x20 DUP3 ADD SWAP1 POP SWAP2 SWAP1 POP JUMP JUMPDEST PUSH1 0x0 PUSH1 0x20 DUP3 ADD SWAP1 POP DUP2 DUP2 SUB PUSH1 0x0 DUP4 ADD MSTORE PUSH2 0x2B92 DUP2 PUSH2 0x2B56 JUMP JUMPDEST SWAP1 POP SWAP2 SWAP1 POP JUMP JUMPDEST PUSH2 0x2BA2 DUP2 PUSH2 0x1CE5 JUMP JUMPDEST DUP3 MSTORE POP POP JUMP JUMPDEST PUSH1 0x0 PUSH1 0x40 DUP3 ADD SWAP1 POP DUP2 DUP2 SUB PUSH1 0x0 DUP4 ADD MSTORE PUSH2 0x2BC2 DUP2 DUP6 PUSH2 0x1A3A JUMP JUMPDEST SWAP1 POP PUSH2 0x2BD1 PUSH1 0x20 DUP4 ADD DUP5 PUSH2 0x2B99 JUMP JUMPDEST SWAP4 SWAP3 POP POP POP JUMP JUMPDEST PUSH1 0x0 DUP2 PUSH1 0x0 SHR SWAP1 POP SWAP2 SWAP1 POP JUMP JUMPDEST PUSH1 0x0 PUSH1 0xFF DUP3 AND SWAP1 POP SWAP2 SWAP1 POP JUMP JUMPDEST PUSH1 0x0 PUSH2 0x2C05 PUSH2 0x2C00 DUP4 PUSH2 0x2BD8 JUMP JUMPDEST PUSH2 0x2BE5 JUMP JUMPDEST SWAP1 POP SWAP2 SWAP1 POP JUMP JUMPDEST PUSH1 0x0 DUP2 PUSH1 0x8 SHR SWAP1 POP SWAP2 SWAP1 POP JUMP JUMPDEST PUSH1 0x0 PUSH2 0x2C2C PUSH2 0x2C27 DUP4 PUSH2 0x2C0C JUMP JUMPDEST PUSH2 0x2BE5 JUMP JUMPDEST SWAP1 POP SWAP2 SWAP1 POP JUMP JUMPDEST PUSH1 0x0 DUP2 PUSH1 0x10 SHR SWAP1 POP SWAP2 SWAP1 POP JUMP JUMPDEST PUSH1 0x0 PUSH2 0x2C53 PUSH2 0x2C4E DUP4 PUSH2 0x2C33 JUMP JUMPDEST PUSH2 0x2BE5 JUMP JUMPDEST SWAP1 POP SWAP2 SWAP1 POP JUMP JUMPDEST PUSH1 0x0 DUP2 PUSH1 0x18 SHR SWAP1 POP SWAP2 SWAP1 POP JUMP JUMPDEST PUSH1 0x0 PUSH2 0x2C7A PUSH2 0x2C75 DUP4 PUSH2 0x2C5A JUMP JUMPDEST PUSH2 0x2BE5 JUMP JUMPDEST SWAP1 POP SWAP2 SWAP1 POP JUMP JUMPDEST PUSH1 0x0 DUP2 PUSH1 0x20 SHR SWAP1 POP SWAP2 SWAP1 POP JUMP JUMPDEST PUSH1 0x0 PUSH2 0x2CA1 PUSH2 0x2C9C DUP4 PUSH2 0x2C81 JUMP JUMPDEST PUSH2 0x2BE5 JUMP JUMPDEST SWAP1 POP SWAP2 SWAP1 POP JUMP JUMPDEST PUSH1 0xA0 DUP3 ADD PUSH1 0x0 DUP1 DUP4 ADD SLOAD SWAP1 POP PUSH2 0x2CBD DUP2 PUSH2 0x2BF2 JUMP JUMPDEST PUSH2 0x2CCA PUSH1 0x0 DUP7 ADD DUP3 PUSH2 0x1C33 JUMP JUMPDEST POP PUSH2 0x2CD4 DUP2 PUSH2 0x2C19 JUMP JUMPDEST PUSH2 0x2CE1 PUSH1 0x20 DUP7 ADD DUP3 PUSH2 0x1C33 JUMP JUMPDEST POP PUSH2 0x2CEB DUP2 PUSH2 0x2C40 JUMP JUMPDEST PUSH2 0x2CF8 PUSH1 0x40 DUP7 ADD DUP3 PUSH2 0x1C33 JUMP JUMPDEST POP PUSH2 0x2D02 DUP2 PUSH2 0x2C67 JUMP JUMPDEST PUSH2 0x2D0F PUSH1 0x60 DUP7 ADD DUP3 PUSH2 0x1C33 JUMP JUMPDEST POP PUSH2 0x2D19 DUP2 PUSH2 0x2C8E JUMP JUMPDEST PUSH2 0x2D26 PUSH1 0x80 DUP7 ADD DUP3 PUSH2 0x1C33 JUMP JUMPDEST POP POP POP POP POP JUMP JUMPDEST PUSH1 0x0 PUSH1 0xC0 DUP3 ADD SWAP1 POP DUP2 DUP2 SUB PUSH1 0x0 DUP4 ADD MSTORE PUSH2 0x2D47 DUP2 DUP6 PUSH2 0x1A3A JUMP JUMPDEST SWAP1 POP PUSH2 0x2D56 PUSH1 0x20 DUP4 ADD DUP5 PUSH2 0x2CA8 JUMP JUMPDEST SWAP4 SWAP3 POP POP POP JUMP INVALID LOG2 PUSH5 0x6970667358 0x22 SLT KECCAK256 TIMESTAMP EXTCODESIZE 0xCB 0xEF CODESIZE PUSH29 0xA0DC4D1345AC0106C6CB95CC9AB1D6AD64CCAB8C91D1D768244564736F PUSH13 0x63430008120033000000000000 "
		},
		"gasEstimates": {
			"creation": {
				"codeDepositCost": "2333400",
				"executionCost": "2501",
				"totalCost": "2335901"
			},
			"external": {
				"createUser(string,(string,string,string,string,string,string),(string,string,string,string,string[],string),(string,string,string,string,string),(bool,bool,bool,bool,bool))": "infinite",
				"editUser(string,(string,string,string,string,string,string),(string,string,string,string,string[],string),(string,string,string,string,string),(bool,bool,bool,bool,bool))": "infinite",
				"getState()": "infinite",
				"getUserByAddress(address)": "infinite",
				"getUserByUsername(string)": "infinite",
				"getVisibility(string)": "infinite",
				"setVisibility(string,bool,bool,bool,bool,bool)": "infinite",
				"updateState(string)": "infinite"
			}
		},
		"methodIdentifiers": {
			"createUser(string,(string,string,string,string,string,string),(string,string,string,string,string[],string),(string,string,string,string,string),(bool,bool,bool,bool,bool))": "bb6228b0",
			"editUser(string,(string,string,string,string,string,string),(string,string,string,string,string[],string),(string,string,string,string,string),(bool,bool,bool,bool,bool))": "f86a29c7",
			"getState()": "1865c57d",
			"getUserByAddress(address)": "69c212f6",
			"getUserByUsername(string)": "9f42af63",
			"getVisibility(string)": "320ba8f7",
			"setVisibility(string,bool,bool,bool,bool,bool)": "d1577cac",
			"updateState(string)": "79ff2e6d"
		}
	},
	"abi": [
		{
			"anonymous": false,
			"inputs": [
				{
					"indexed": false,
					"internalType": "string",
					"name": "newState",
					"type": "string"
				}
			],
			"name": "StateUpdated",
			"type": "event"
		},
		{
			"anonymous": false,
			"inputs": [
				{
					"indexed": false,
					"internalType": "string",
					"name": "username",
					"type": "string"
				},
				{
					"indexed": false,
					"internalType": "address",
					"name": "userAddress",
					"type": "address"
				}
			],
			"name": "UserCreated",
			"type": "event"
		},
		{
			"anonymous": false,
			"inputs": [
				{
					"indexed": false,
					"internalType": "string",
					"name": "username",
					"type": "string"
				}
			],
			"name": "UserEdited",
			"type": "event"
		},
		{
			"anonymous": false,
			"inputs": [
				{
					"indexed": false,
					"internalType": "string",
					"name": "username",
					"type": "string"
				},
				{
					"components": [
						{
							"internalType": "bool",
							"name": "education",
							"type": "bool"
						},
						{
							"internalType": "bool",
							"name": "workHistory",
							"type": "bool"
						},
						{
							"internalType": "bool",
							"name": "phoneNumber",
							"type": "bool"
						},
						{
							"internalType": "bool",
							"name": "homeAddress",
							"type": "bool"
						},
						{
							"internalType": "bool",
							"name": "dateOfBirth",
							"type": "bool"
						}
					],
					"indexed": false,
					"internalType": "struct HederaIdentiFi.Visibility",
					"name": "visibility",
					"type": "tuple"
				}
			],
			"name": "VisibilitySet",
			"type": "event"
		},
		{
			"inputs": [
				{
					"internalType": "string",
					"name": "username",
					"type": "string"
				},
				{
					"components": [
						{
							"internalType": "string",
							"name": "firstName",
							"type": "string"
						},
						{
							"internalType": "string",
							"name": "lastName",
							"type": "string"
						},
						{
							"internalType": "string",
							"name": "email",
							"type": "string"
						},
						{
							"internalType": "string",
							"name": "homeAddress",
							"type": "string"
						},
						{
							"internalType": "string",
							"name": "dateOfBirth",
							"type": "string"
						},
						{
							"internalType": "string",
							"name": "phoneNumber",
							"type": "string"
						}
					],
					"internalType": "struct HederaIdentiFi.BasicInfo",
					"name": "basicInfo",
					"type": "tuple"
				},
				{
					"components": [
						{
							"internalType": "string",
							"name": "education",
							"type": "string"
						},
						{
							"internalType": "string",
							"name": "workHistory",
							"type": "string"
						},
						{
							"internalType": "string",
							"name": "jobTitle",
							"type": "string"
						},
						{
							"internalType": "string",
							"name": "info",
							"type": "string"
						},
						{
							"internalType": "string[]",
							"name": "skills",
							"type": "string[]"
						},
						{
							"internalType": "string",
							"name": "imageURL",
							"type": "string"
						}
					],
					"internalType": "struct HederaIdentiFi.ProfessionalInfo",
					"name": "professionalInfo",
					"type": "tuple"
				},
				{
					"components": [
						{
							"internalType": "string",
							"name": "x",
							"type": "string"
						},
						{
							"internalType": "string",
							"name": "instagram",
							"type": "string"
						},
						{
							"internalType": "string",
							"name": "tiktok",
							"type": "string"
						},
						{
							"internalType": "string",
							"name": "youtube",
							"type": "string"
						},
						{
							"internalType": "string",
							"name": "linkedin",
							"type": "string"
						}
					],
					"internalType": "struct HederaIdentiFi.SocialLinks",
					"name": "socialLinks",
					"type": "tuple"
				},
				{
					"components": [
						{
							"internalType": "bool",
							"name": "education",
							"type": "bool"
						},
						{
							"internalType": "bool",
							"name": "workHistory",
							"type": "bool"
						},
						{
							"internalType": "bool",
							"name": "phoneNumber",
							"type": "bool"
						},
						{
							"internalType": "bool",
							"name": "homeAddress",
							"type": "bool"
						},
						{
							"internalType": "bool",
							"name": "dateOfBirth",
							"type": "bool"
						}
					],
					"internalType": "struct HederaIdentiFi.Visibility",
					"name": "visibility",
					"type": "tuple"
				}
			],
			"name": "createUser",
			"outputs": [],
			"stateMutability": "nonpayable",
			"type": "function"
		},
		{
			"inputs": [
				{
					"internalType": "string",
					"name": "username",
					"type": "string"
				},
				{
					"components": [
						{
							"internalType": "string",
							"name": "firstName",
							"type": "string"
						},
						{
							"internalType": "string",
							"name": "lastName",
							"type": "string"
						},
						{
							"internalType": "string",
							"name": "email",
							"type": "string"
						},
						{
							"internalType": "string",
							"name": "homeAddress",
							"type": "string"
						},
						{
							"internalType": "string",
							"name": "dateOfBirth",
							"type": "string"
						},
						{
							"internalType": "string",
							"name": "phoneNumber",
							"type": "string"
						}
					],
					"internalType": "struct HederaIdentiFi.BasicInfo",
					"name": "basicInfo",
					"type": "tuple"
				},
				{
					"components": [
						{
							"internalType": "string",
							"name": "education",
							"type": "string"
						},
						{
							"internalType": "string",
							"name": "workHistory",
							"type": "string"
						},
						{
							"internalType": "string",
							"name": "jobTitle",
							"type": "string"
						},
						{
							"internalType": "string",
							"name": "info",
							"type": "string"
						},
						{
							"internalType": "string[]",
							"name": "skills",
							"type": "string[]"
						},
						{
							"internalType": "string",
							"name": "imageURL",
							"type": "string"
						}
					],
					"internalType": "struct HederaIdentiFi.ProfessionalInfo",
					"name": "professionalInfo",
					"type": "tuple"
				},
				{
					"components": [
						{
							"internalType": "string",
							"name": "x",
							"type": "string"
						},
						{
							"internalType": "string",
							"name": "instagram",
							"type": "string"
						},
						{
							"internalType": "string",
							"name": "tiktok",
							"type": "string"
						},
						{
							"internalType": "string",
							"name": "youtube",
							"type": "string"
						},
						{
							"internalType": "string",
							"name": "linkedin",
							"type": "string"
						}
					],
					"internalType": "struct HederaIdentiFi.SocialLinks",
					"name": "socialLinks",
					"type": "tuple"
				},
				{
					"components": [
						{
							"internalType": "bool",
							"name": "education",
							"type": "bool"
						},
						{
							"internalType": "bool",
							"name": "workHistory",
							"type": "bool"
						},
						{
							"internalType": "bool",
							"name": "phoneNumber",
							"type": "bool"
						},
						{
							"internalType": "bool",
							"name": "homeAddress",
							"type": "bool"
						},
						{
							"internalType": "bool",
							"name": "dateOfBirth",
							"type": "bool"
						}
					],
					"internalType": "struct HederaIdentiFi.Visibility",
					"name": "visibility",
					"type": "tuple"
				}
			],
			"name": "editUser",
			"outputs": [],
			"stateMutability": "nonpayable",
			"type": "function"
		},
		{
			"inputs": [],
			"name": "getState",
			"outputs": [
				{
					"internalType": "string",
					"name": "",
					"type": "string"
				}
			],
			"stateMutability": "view",
			"type": "function"
		},
		{
			"inputs": [
				{
					"internalType": "address",
					"name": "userAddress",
					"type": "address"
				}
			],
			"name": "getUserByAddress",
			"outputs": [
				{
					"components": [
						{
							"internalType": "string",
							"name": "firstName",
							"type": "string"
						},
						{
							"internalType": "string",
							"name": "lastName",
							"type": "string"
						},
						{
							"internalType": "string",
							"name": "email",
							"type": "string"
						},
						{
							"internalType": "string",
							"name": "homeAddress",
							"type": "string"
						},
						{
							"internalType": "string",
							"name": "dateOfBirth",
							"type": "string"
						},
						{
							"internalType": "string",
							"name": "phoneNumber",
							"type": "string"
						}
					],
					"internalType": "struct HederaIdentiFi.BasicInfo",
					"name": "basicInfo",
					"type": "tuple"
				},
				{
					"components": [
						{
							"internalType": "string",
							"name": "education",
							"type": "string"
						},
						{
							"internalType": "string",
							"name": "workHistory",
							"type": "string"
						},
						{
							"internalType": "string",
							"name": "jobTitle",
							"type": "string"
						},
						{
							"internalType": "string",
							"name": "info",
							"type": "string"
						},
						{
							"internalType": "string[]",
							"name": "skills",
							"type": "string[]"
						},
						{
							"internalType": "string",
							"name": "imageURL",
							"type": "string"
						}
					],
					"internalType": "struct HederaIdentiFi.ProfessionalInfo",
					"name": "professionalInfo",
					"type": "tuple"
				},
				{
					"components": [
						{
							"internalType": "string",
							"name": "x",
							"type": "string"
						},
						{
							"internalType": "string",
							"name": "instagram",
							"type": "string"
						},
						{
							"internalType": "string",
							"name": "tiktok",
							"type": "string"
						},
						{
							"internalType": "string",
							"name": "youtube",
							"type": "string"
						},
						{
							"internalType": "string",
							"name": "linkedin",
							"type": "string"
						}
					],
					"internalType": "struct HederaIdentiFi.SocialLinks",
					"name": "socialLinks",
					"type": "tuple"
				},
				{
					"components": [
						{
							"internalType": "bool",
							"name": "education",
							"type": "bool"
						},
						{
							"internalType": "bool",
							"name": "workHistory",
							"type": "bool"
						},
						{
							"internalType": "bool",
							"name": "phoneNumber",
							"type": "bool"
						},
						{
							"internalType": "bool",
							"name": "homeAddress",
							"type": "bool"
						},
						{
							"internalType": "bool",
							"name": "dateOfBirth",
							"type": "bool"
						}
					],
					"internalType": "struct HederaIdentiFi.Visibility",
					"name": "visibility",
					"type": "tuple"
				}
			],
			"stateMutability": "view",
			"type": "function"
		},
		{
			"inputs": [
				{
					"internalType": "string",
					"name": "username",
					"type": "string"
				}
			],
			"name": "getUserByUsername",
			"outputs": [
				{
					"components": [
						{
							"internalType": "string",
							"name": "firstName",
							"type": "string"
						},
						{
							"internalType": "string",
							"name": "lastName",
							"type": "string"
						},
						{
							"internalType": "string",
							"name": "email",
							"type": "string"
						},
						{
							"internalType": "string",
							"name": "homeAddress",
							"type": "string"
						},
						{
							"internalType": "string",
							"name": "dateOfBirth",
							"type": "string"
						},
						{
							"internalType": "string",
							"name": "phoneNumber",
							"type": "string"
						}
					],
					"internalType": "struct HederaIdentiFi.BasicInfo",
					"name": "basicInfo",
					"type": "tuple"
				},
				{
					"components": [
						{
							"internalType": "string",
							"name": "education",
							"type": "string"
						},
						{
							"internalType": "string",
							"name": "workHistory",
							"type": "string"
						},
						{
							"internalType": "string",
							"name": "jobTitle",
							"type": "string"
						},
						{
							"internalType": "string",
							"name": "info",
							"type": "string"
						},
						{
							"internalType": "string[]",
							"name": "skills",
							"type": "string[]"
						},
						{
							"internalType": "string",
							"name": "imageURL",
							"type": "string"
						}
					],
					"internalType": "struct HederaIdentiFi.ProfessionalInfo",
					"name": "professionalInfo",
					"type": "tuple"
				},
				{
					"components": [
						{
							"internalType": "string",
							"name": "x",
							"type": "string"
						},
						{
							"internalType": "string",
							"name": "instagram",
							"type": "string"
						},
						{
							"internalType": "string",
							"name": "tiktok",
							"type": "string"
						},
						{
							"internalType": "string",
							"name": "youtube",
							"type": "string"
						},
						{
							"internalType": "string",
							"name": "linkedin",
							"type": "string"
						}
					],
					"internalType": "struct HederaIdentiFi.SocialLinks",
					"name": "socialLinks",
					"type": "tuple"
				},
				{
					"components": [
						{
							"internalType": "bool",
							"name": "education",
							"type": "bool"
						},
						{
							"internalType": "bool",
							"name": "workHistory",
							"type": "bool"
						},
						{
							"internalType": "bool",
							"name": "phoneNumber",
							"type": "bool"
						},
						{
							"internalType": "bool",
							"name": "homeAddress",
							"type": "bool"
						},
						{
							"internalType": "bool",
							"name": "dateOfBirth",
							"type": "bool"
						}
					],
					"internalType": "struct HederaIdentiFi.Visibility",
					"name": "visibility",
					"type": "tuple"
				}
			],
			"stateMutability": "view",
			"type": "function"
		},
		{
			"inputs": [
				{
					"internalType": "string",
					"name": "username",
					"type": "string"
				}
			],
			"name": "getVisibility",
			"outputs": [
				{
					"components": [
						{
							"internalType": "bool",
							"name": "education",
							"type": "bool"
						},
						{
							"internalType": "bool",
							"name": "workHistory",
							"type": "bool"
						},
						{
							"internalType": "bool",
							"name": "phoneNumber",
							"type": "bool"
						},
						{
							"internalType": "bool",
							"name": "homeAddress",
							"type": "bool"
						},
						{
							"internalType": "bool",
							"name": "dateOfBirth",
							"type": "bool"
						}
					],
					"internalType": "struct HederaIdentiFi.Visibility",
					"name": "",
					"type": "tuple"
				}
			],
			"stateMutability": "view",
			"type": "function"
		},
		{
			"inputs": [
				{
					"internalType": "string",
					"name": "username",
					"type": "string"
				},
				{
					"internalType": "bool",
					"name": "education",
					"type": "bool"
				},
				{
					"internalType": "bool",
					"name": "workHistory",
					"type": "bool"
				},
				{
					"internalType": "bool",
					"name": "phoneNumber",
					"type": "bool"
				},
				{
					"internalType": "bool",
					"name": "homeAddress",
					"type": "bool"
				},
				{
					"internalType": "bool",
					"name": "dateOfBirth",
					"type": "bool"
				}
			],
			"name": "setVisibility",
			"outputs": [],
			"stateMutability": "nonpayable",
			"type": "function"
		},
		{
			"inputs": [
				{
					"internalType": "string",
					"name": "newState",
					"type": "string"
				}
			],
			"name": "updateState",
			"outputs": [],
			"stateMutability": "nonpayable",
			"type": "function"
		}
	]
}